{
	"contracts/contratoNotaMinima.sol": {
		"ContratoNotaMinima": {
			"abi": [
				{
					"inputs": [
						{
							"internalType": "address",
							"name": "pessoa2",
							"type": "address"
						},
						{
							"internalType": "string",
							"name": "nome",
							"type": "string"
						},
						{
							"internalType": "string",
							"name": "objeto",
							"type": "string"
						},
						{
							"internalType": "uint256",
							"name": "minhanota",
							"type": "uint256"
						},
						{
							"internalType": "string",
							"name": "meunome",
							"type": "string"
						}
					],
					"stateMutability": "nonpayable",
					"type": "constructor"
				},
				{
					"inputs": [],
					"name": "Aceitar",
					"outputs": [],
					"stateMutability": "nonpayable",
					"type": "function"
				},
				{
					"inputs": [],
					"name": "Pessoa1",
					"outputs": [
						{
							"internalType": "address",
							"name": "pessoa1",
							"type": "address"
						},
						{
							"internalType": "string",
							"name": "nome",
							"type": "string"
						}
					],
					"stateMutability": "view",
					"type": "function"
				},
				{
					"inputs": [],
					"name": "Pessoa2",
					"outputs": [
						{
							"internalType": "address",
							"name": "pessoa2",
							"type": "address"
						},
						{
							"internalType": "string",
							"name": "nome",
							"type": "string"
						},
						{
							"internalType": "bool",
							"name": "aceitar",
							"type": "bool"
						}
					],
					"stateMutability": "view",
					"type": "function"
				},
				{
					"inputs": [],
					"name": "Quemtapedindo",
					"outputs": [
						{
							"internalType": "string",
							"name": "",
							"type": "string"
						},
						{
							"internalType": "address",
							"name": "",
							"type": "address"
						}
					],
					"stateMutability": "view",
					"type": "function"
				},
				{
					"inputs": [],
					"name": "notaMinima",
					"outputs": [
						{
							"internalType": "uint256",
							"name": "",
							"type": "uint256"
						}
					],
					"stateMutability": "view",
					"type": "function"
				},
				{
					"inputs": [],
					"name": "objectContrato",
					"outputs": [
						{
							"internalType": "string",
							"name": "",
							"type": "string"
						}
					],
					"stateMutability": "view",
					"type": "function"
				},
				{
					"inputs": [],
					"name": "tempoContratoNota",
					"outputs": [
						{
							"internalType": "uint256",
							"name": "",
							"type": "uint256"
						}
					],
					"stateMutability": "view",
					"type": "function"
				},
				{
					"inputs": [],
					"name": "terminarContrato",
					"outputs": [],
					"stateMutability": "nonpayable",
					"type": "function"
				}
			],
			"devdoc": {
				"kind": "dev",
				"methods": {},
				"version": 1
			},
			"evm": {
				"assembly": "    /* \"contracts/contratoNotaMinima.sol\":230:1585  contract ContratoNotaMinima{... */\n  mstore(0x40, 0x80)\n    /* \"contracts/contratoNotaMinima.sol\":420:894  constructor(... */\n  callvalue\n  dup1\n  iszero\n  tag_1\n  jumpi\n  0x00\n  dup1\n  revert\ntag_1:\n  pop\n  mload(0x40)\n  sub(codesize, bytecodeSize)\n  dup1\n  bytecodeSize\n  dup4\n  codecopy\n  dup2\n  dup2\n  add\n  0x40\n  mstore\n  dup2\n  add\n  swap1\n  tag_2\n  swap2\n  swap1\n  tag_3\n  jump\t// in\ntag_2:\n    /* \"contracts/contratoNotaMinima.sol\":610:613  3.0 */\n  0x03\n    /* \"contracts/contratoNotaMinima.sol\":597:606  minhanota */\n  dup3\n    /* \"contracts/contratoNotaMinima.sol\":597:613  minhanota >= 3.0 */\n  lt\n  iszero\n    /* \"contracts/contratoNotaMinima.sol\":589:646  require(minhanota >= 3.0, \"Somente  nota maior que tres\") */\n  tag_6\n  jumpi\n  mload(0x40)\n  0x08c379a000000000000000000000000000000000000000000000000000000000\n  dup2\n  mstore\n  0x04\n  add\n  tag_7\n  swap1\n  tag_8\n  jump\t// in\ntag_7:\n  mload(0x40)\n  dup1\n  swap2\n  sub\n  swap1\n  revert\ntag_6:\n    /* \"contracts/contratoNotaMinima.sol\":669:678  minhanota */\n  dup2\n    /* \"contracts/contratoNotaMinima.sol\":656:666  notaMinima */\n  0x07\n    /* \"contracts/contratoNotaMinima.sol\":656:678  notaMinima = minhanota */\n  dup2\n  swap1\n  sstore\n  pop\n    /* \"contracts/contratoNotaMinima.sol\":703:710  meunome */\n  dup1\n    /* \"contracts/contratoNotaMinima.sol\":688:695  Pessoa1 */\n  0x03\n    /* \"contracts/contratoNotaMinima.sol\":688:700  Pessoa1.nome */\n  0x01\n  add\n    /* \"contracts/contratoNotaMinima.sol\":688:710  Pessoa1.nome = meunome */\n  swap1\n  dup1\n  mload\n  swap1\n  0x20\n  add\n  swap1\n  tag_9\n  swap3\n  swap2\n  swap1\n  tag_10\n  jump\t// in\ntag_9:\n  pop\n    /* \"contracts/contratoNotaMinima.sol\":738:745  pessoa2 */\n  dup5\n    /* \"contracts/contratoNotaMinima.sol\":720:727  Pessoa2 */\n  0x00\n    /* \"contracts/contratoNotaMinima.sol\":720:735  Pessoa2.pessoa2 */\n  dup1\n  add\n  0x00\n    /* \"contracts/contratoNotaMinima.sol\":720:745  Pessoa2.pessoa2 = pessoa2 */\n  0x0100\n  exp\n  dup2\n  sload\n  dup2\n  0xffffffffffffffffffffffffffffffffffffffff\n  mul\n  not\n  and\n  swap1\n  dup4\n  0xffffffffffffffffffffffffffffffffffffffff\n  and\n  mul\n  or\n  swap1\n  sstore\n  pop\n    /* \"contracts/contratoNotaMinima.sol\":770:774  nome */\n  dup4\n    /* \"contracts/contratoNotaMinima.sol\":755:762  Pessoa2 */\n  0x00\n    /* \"contracts/contratoNotaMinima.sol\":755:767  Pessoa2.nome */\n  0x01\n  add\n    /* \"contracts/contratoNotaMinima.sol\":755:774  Pessoa2.nome = nome */\n  swap1\n  dup1\n  mload\n  swap1\n  0x20\n  add\n  swap1\n  tag_11\n  swap3\n  swap2\n  swap1\n  tag_10\n  jump\t// in\ntag_11:\n  pop\n    /* \"contracts/contratoNotaMinima.sol\":801:816  block.timestamp */\n  timestamp\n    /* \"contracts/contratoNotaMinima.sol\":784:798  dataAssinatura */\n  0x05\n    /* \"contracts/contratoNotaMinima.sol\":784:816  dataAssinatura = block.timestamp */\n  dup2\n  swap1\n  sstore\n  pop\n    /* \"contracts/contratoNotaMinima.sol\":843:849  objeto */\n  dup3\n    /* \"contracts/contratoNotaMinima.sol\":826:840  objectContrato */\n  0x06\n    /* \"contracts/contratoNotaMinima.sol\":826:849  objectContrato = objeto */\n  swap1\n  dup1\n  mload\n  swap1\n  0x20\n  add\n  swap1\n  tag_12\n  swap3\n  swap2\n  swap1\n  tag_10\n  jump\t// in\ntag_12:\n  pop\n    /* \"contracts/contratoNotaMinima.sol\":877:887  msg.sender */\n  caller\n    /* \"contracts/contratoNotaMinima.sol\":859:866  Pessoa1 */\n  0x03\n    /* \"contracts/contratoNotaMinima.sol\":859:874  Pessoa1.pessoa1 */\n  0x00\n  add\n  0x00\n    /* \"contracts/contratoNotaMinima.sol\":859:887  Pessoa1.pessoa1 = msg.sender */\n  0x0100\n  exp\n  dup2\n  sload\n  dup2\n  0xffffffffffffffffffffffffffffffffffffffff\n  mul\n  not\n  and\n  swap1\n  dup4\n  0xffffffffffffffffffffffffffffffffffffffff\n  and\n  mul\n  or\n  swap1\n  sstore\n  pop\n    /* \"contracts/contratoNotaMinima.sol\":420:894  constructor(... */\n  pop\n  pop\n  pop\n  pop\n  pop\n    /* \"contracts/contratoNotaMinima.sol\":230:1585  contract ContratoNotaMinima{... */\n  jump(tag_13)\ntag_10:\n  dup3\n  dup1\n  sload\n  tag_14\n  swap1\n  tag_15\n  jump\t// in\ntag_14:\n  swap1\n  0x00\n  mstore\n  keccak256(0x00, 0x20)\n  swap1\n  0x1f\n  add\n  0x20\n  swap1\n  div\n  dup2\n  add\n  swap3\n  dup3\n  tag_17\n  jumpi\n  0x00\n  dup6\n  sstore\n  jump(tag_16)\ntag_17:\n  dup3\n  0x1f\n  lt\n  tag_18\n  jumpi\n  dup1\n  mload\n  not(0xff)\n  and\n  dup4\n  dup1\n  add\n  or\n  dup6\n  sstore\n  jump(tag_16)\ntag_18:\n  dup3\n  dup1\n  add\n  0x01\n  add\n  dup6\n  sstore\n  dup3\n  iszero\n  tag_16\n  jumpi\n  swap2\n  dup3\n  add\ntag_19:\n  dup3\n  dup2\n  gt\n  iszero\n  tag_20\n  jumpi\n  dup3\n  mload\n  dup3\n  sstore\n  swap2\n  0x20\n  add\n  swap2\n  swap1\n  0x01\n  add\n  swap1\n  jump(tag_19)\ntag_20:\ntag_16:\n  pop\n  swap1\n  pop\n  tag_21\n  swap2\n  swap1\n  tag_22\n  jump\t// in\ntag_21:\n  pop\n  swap1\n  jump\t// out\ntag_22:\ntag_23:\n  dup1\n  dup3\n  gt\n  iszero\n  tag_24\n  jumpi\n  0x00\n  dup2\n  0x00\n  swap1\n  sstore\n  pop\n  0x01\n  add\n  jump(tag_23)\ntag_24:\n  pop\n  swap1\n  jump\t// out\n    /* \"#utility.yul\":7:428   */\ntag_26:\n    /* \"#utility.yul\":96:101   */\n  0x00\n    /* \"#utility.yul\":121:187   */\n  tag_28\n    /* \"#utility.yul\":137:186   */\n  tag_29\n    /* \"#utility.yul\":179:185   */\n  dup5\n    /* \"#utility.yul\":137:186   */\n  tag_30\n  jump\t// in\ntag_29:\n    /* \"#utility.yul\":121:187   */\n  tag_31\n  jump\t// in\ntag_28:\n    /* \"#utility.yul\":112:187   */\n  swap1\n  pop\n    /* \"#utility.yul\":210:216   */\n  dup3\n    /* \"#utility.yul\":203:208   */\n  dup2\n    /* \"#utility.yul\":196:217   */\n  mstore\n    /* \"#utility.yul\":248:252   */\n  0x20\n    /* \"#utility.yul\":241:246   */\n  dup2\n    /* \"#utility.yul\":237:253   */\n  add\n    /* \"#utility.yul\":286:289   */\n  dup5\n    /* \"#utility.yul\":277:283   */\n  dup5\n    /* \"#utility.yul\":272:275   */\n  dup5\n    /* \"#utility.yul\":268:284   */\n  add\n    /* \"#utility.yul\":265:290   */\n  gt\n    /* \"#utility.yul\":262:374   */\n  iszero\n  tag_32\n  jumpi\n    /* \"#utility.yul\":293:372   */\n  tag_33\n  tag_34\n  jump\t// in\ntag_33:\n    /* \"#utility.yul\":262:374   */\ntag_32:\n    /* \"#utility.yul\":383:422   */\n  tag_35\n    /* \"#utility.yul\":415:421   */\n  dup5\n    /* \"#utility.yul\":410:413   */\n  dup3\n    /* \"#utility.yul\":405:408   */\n  dup6\n    /* \"#utility.yul\":383:422   */\n  tag_36\n  jump\t// in\ntag_35:\n    /* \"#utility.yul\":102:428   */\n  pop\n    /* \"#utility.yul\":7:428   */\n  swap4\n  swap3\n  pop\n  pop\n  pop\n  jump\t// out\n    /* \"#utility.yul\":434:577   */\ntag_37:\n    /* \"#utility.yul\":491:496   */\n  0x00\n    /* \"#utility.yul\":522:528   */\n  dup2\n    /* \"#utility.yul\":516:529   */\n  mload\n    /* \"#utility.yul\":507:529   */\n  swap1\n  pop\n    /* \"#utility.yul\":538:571   */\n  tag_39\n    /* \"#utility.yul\":565:570   */\n  dup2\n    /* \"#utility.yul\":538:571   */\n  tag_40\n  jump\t// in\ntag_39:\n    /* \"#utility.yul\":434:577   */\n  swap3\n  swap2\n  pop\n  pop\n  jump\t// out\n    /* \"#utility.yul\":597:952   */\ntag_41:\n    /* \"#utility.yul\":664:669   */\n  0x00\n    /* \"#utility.yul\":713:716   */\n  dup3\n    /* \"#utility.yul\":706:710   */\n  0x1f\n    /* \"#utility.yul\":698:704   */\n  dup4\n    /* \"#utility.yul\":694:711   */\n  add\n    /* \"#utility.yul\":690:717   */\n  slt\n    /* \"#utility.yul\":680:802   */\n  tag_43\n  jumpi\n    /* \"#utility.yul\":721:800   */\n  tag_44\n  tag_45\n  jump\t// in\ntag_44:\n    /* \"#utility.yul\":680:802   */\ntag_43:\n    /* \"#utility.yul\":831:837   */\n  dup2\n    /* \"#utility.yul\":825:838   */\n  mload\n    /* \"#utility.yul\":856:946   */\n  tag_46\n    /* \"#utility.yul\":942:945   */\n  dup5\n    /* \"#utility.yul\":934:940   */\n  dup3\n    /* \"#utility.yul\":927:931   */\n  0x20\n    /* \"#utility.yul\":919:925   */\n  dup7\n    /* \"#utility.yul\":915:932   */\n  add\n    /* \"#utility.yul\":856:946   */\n  tag_26\n  jump\t// in\ntag_46:\n    /* \"#utility.yul\":847:946   */\n  swap2\n  pop\n    /* \"#utility.yul\":670:952   */\n  pop\n    /* \"#utility.yul\":597:952   */\n  swap3\n  swap2\n  pop\n  pop\n  jump\t// out\n    /* \"#utility.yul\":958:1101   */\ntag_47:\n    /* \"#utility.yul\":1015:1020   */\n  0x00\n    /* \"#utility.yul\":1046:1052   */\n  dup2\n    /* \"#utility.yul\":1040:1053   */\n  mload\n    /* \"#utility.yul\":1031:1053   */\n  swap1\n  pop\n    /* \"#utility.yul\":1062:1095   */\n  tag_49\n    /* \"#utility.yul\":1089:1094   */\n  dup2\n    /* \"#utility.yul\":1062:1095   */\n  tag_50\n  jump\t// in\ntag_49:\n    /* \"#utility.yul\":958:1101   */\n  swap3\n  swap2\n  pop\n  pop\n  jump\t// out\n    /* \"#utility.yul\":1107:2603   */\ntag_3:\n    /* \"#utility.yul\":1243:1249   */\n  0x00\n    /* \"#utility.yul\":1251:1257   */\n  dup1\n    /* \"#utility.yul\":1259:1265   */\n  0x00\n    /* \"#utility.yul\":1267:1273   */\n  dup1\n    /* \"#utility.yul\":1275:1281   */\n  0x00\n    /* \"#utility.yul\":1324:1327   */\n  0xa0\n    /* \"#utility.yul\":1312:1321   */\n  dup7\n    /* \"#utility.yul\":1303:1310   */\n  dup9\n    /* \"#utility.yul\":1299:1322   */\n  sub\n    /* \"#utility.yul\":1295:1328   */\n  slt\n    /* \"#utility.yul\":1292:1412   */\n  iszero\n  tag_52\n  jumpi\n    /* \"#utility.yul\":1331:1410   */\n  tag_53\n  tag_54\n  jump\t// in\ntag_53:\n    /* \"#utility.yul\":1292:1412   */\ntag_52:\n    /* \"#utility.yul\":1451:1452   */\n  0x00\n    /* \"#utility.yul\":1476:1540   */\n  tag_55\n    /* \"#utility.yul\":1532:1539   */\n  dup9\n    /* \"#utility.yul\":1523:1529   */\n  dup3\n    /* \"#utility.yul\":1512:1521   */\n  dup10\n    /* \"#utility.yul\":1508:1530   */\n  add\n    /* \"#utility.yul\":1476:1540   */\n  tag_37\n  jump\t// in\ntag_55:\n    /* \"#utility.yul\":1466:1540   */\n  swap6\n  pop\n    /* \"#utility.yul\":1422:1550   */\n  pop\n    /* \"#utility.yul\":1610:1612   */\n  0x20\n    /* \"#utility.yul\":1599:1608   */\n  dup7\n    /* \"#utility.yul\":1595:1613   */\n  add\n    /* \"#utility.yul\":1589:1614   */\n  mload\n    /* \"#utility.yul\":1641:1659   */\n  0xffffffffffffffff\n    /* \"#utility.yul\":1633:1639   */\n  dup2\n    /* \"#utility.yul\":1630:1660   */\n  gt\n    /* \"#utility.yul\":1627:1744   */\n  iszero\n  tag_56\n  jumpi\n    /* \"#utility.yul\":1663:1742   */\n  tag_57\n  tag_58\n  jump\t// in\ntag_57:\n    /* \"#utility.yul\":1627:1744   */\ntag_56:\n    /* \"#utility.yul\":1768:1842   */\n  tag_59\n    /* \"#utility.yul\":1834:1841   */\n  dup9\n    /* \"#utility.yul\":1825:1831   */\n  dup3\n    /* \"#utility.yul\":1814:1823   */\n  dup10\n    /* \"#utility.yul\":1810:1832   */\n  add\n    /* \"#utility.yul\":1768:1842   */\n  tag_41\n  jump\t// in\ntag_59:\n    /* \"#utility.yul\":1758:1842   */\n  swap5\n  pop\n    /* \"#utility.yul\":1560:1852   */\n  pop\n    /* \"#utility.yul\":1912:1914   */\n  0x40\n    /* \"#utility.yul\":1901:1910   */\n  dup7\n    /* \"#utility.yul\":1897:1915   */\n  add\n    /* \"#utility.yul\":1891:1916   */\n  mload\n    /* \"#utility.yul\":1943:1961   */\n  0xffffffffffffffff\n    /* \"#utility.yul\":1935:1941   */\n  dup2\n    /* \"#utility.yul\":1932:1962   */\n  gt\n    /* \"#utility.yul\":1929:2046   */\n  iszero\n  tag_60\n  jumpi\n    /* \"#utility.yul\":1965:2044   */\n  tag_61\n  tag_58\n  jump\t// in\ntag_61:\n    /* \"#utility.yul\":1929:2046   */\ntag_60:\n    /* \"#utility.yul\":2070:2144   */\n  tag_62\n    /* \"#utility.yul\":2136:2143   */\n  dup9\n    /* \"#utility.yul\":2127:2133   */\n  dup3\n    /* \"#utility.yul\":2116:2125   */\n  dup10\n    /* \"#utility.yul\":2112:2134   */\n  add\n    /* \"#utility.yul\":2070:2144   */\n  tag_41\n  jump\t// in\ntag_62:\n    /* \"#utility.yul\":2060:2144   */\n  swap4\n  pop\n    /* \"#utility.yul\":1862:2154   */\n  pop\n    /* \"#utility.yul\":2193:2195   */\n  0x60\n    /* \"#utility.yul\":2219:2283   */\n  tag_63\n    /* \"#utility.yul\":2275:2282   */\n  dup9\n    /* \"#utility.yul\":2266:2272   */\n  dup3\n    /* \"#utility.yul\":2255:2264   */\n  dup10\n    /* \"#utility.yul\":2251:2273   */\n  add\n    /* \"#utility.yul\":2219:2283   */\n  tag_47\n  jump\t// in\ntag_63:\n    /* \"#utility.yul\":2209:2283   */\n  swap3\n  pop\n    /* \"#utility.yul\":2164:2293   */\n  pop\n    /* \"#utility.yul\":2353:2356   */\n  0x80\n    /* \"#utility.yul\":2342:2351   */\n  dup7\n    /* \"#utility.yul\":2338:2357   */\n  add\n    /* \"#utility.yul\":2332:2358   */\n  mload\n    /* \"#utility.yul\":2385:2403   */\n  0xffffffffffffffff\n    /* \"#utility.yul\":2377:2383   */\n  dup2\n    /* \"#utility.yul\":2374:2404   */\n  gt\n    /* \"#utility.yul\":2371:2488   */\n  iszero\n  tag_64\n  jumpi\n    /* \"#utility.yul\":2407:2486   */\n  tag_65\n  tag_58\n  jump\t// in\ntag_65:\n    /* \"#utility.yul\":2371:2488   */\ntag_64:\n    /* \"#utility.yul\":2512:2586   */\n  tag_66\n    /* \"#utility.yul\":2578:2585   */\n  dup9\n    /* \"#utility.yul\":2569:2575   */\n  dup3\n    /* \"#utility.yul\":2558:2567   */\n  dup10\n    /* \"#utility.yul\":2554:2576   */\n  add\n    /* \"#utility.yul\":2512:2586   */\n  tag_41\n  jump\t// in\ntag_66:\n    /* \"#utility.yul\":2502:2586   */\n  swap2\n  pop\n    /* \"#utility.yul\":2303:2596   */\n  pop\n    /* \"#utility.yul\":1107:2603   */\n  swap3\n  swap6\n  pop\n  swap3\n  swap6\n  swap1\n  swap4\n  pop\n  jump\t// out\n    /* \"#utility.yul\":2609:2975   */\ntag_67:\n    /* \"#utility.yul\":2751:2754   */\n  0x00\n    /* \"#utility.yul\":2772:2839   */\n  tag_69\n    /* \"#utility.yul\":2836:2838   */\n  0x1c\n    /* \"#utility.yul\":2831:2834   */\n  dup4\n    /* \"#utility.yul\":2772:2839   */\n  tag_70\n  jump\t// in\ntag_69:\n    /* \"#utility.yul\":2765:2839   */\n  swap2\n  pop\n    /* \"#utility.yul\":2848:2941   */\n  tag_71\n    /* \"#utility.yul\":2937:2940   */\n  dup3\n    /* \"#utility.yul\":2848:2941   */\n  tag_72\n  jump\t// in\ntag_71:\n    /* \"#utility.yul\":2966:2968   */\n  0x20\n    /* \"#utility.yul\":2961:2964   */\n  dup3\n    /* \"#utility.yul\":2957:2969   */\n  add\n    /* \"#utility.yul\":2950:2969   */\n  swap1\n  pop\n    /* \"#utility.yul\":2609:2975   */\n  swap2\n  swap1\n  pop\n  jump\t// out\n    /* \"#utility.yul\":2981:3400   */\ntag_8:\n    /* \"#utility.yul\":3147:3151   */\n  0x00\n    /* \"#utility.yul\":3185:3187   */\n  0x20\n    /* \"#utility.yul\":3174:3183   */\n  dup3\n    /* \"#utility.yul\":3170:3188   */\n  add\n    /* \"#utility.yul\":3162:3188   */\n  swap1\n  pop\n    /* \"#utility.yul\":3234:3243   */\n  dup2\n    /* \"#utility.yul\":3228:3232   */\n  dup2\n    /* \"#utility.yul\":3224:3244   */\n  sub\n    /* \"#utility.yul\":3220:3221   */\n  0x00\n    /* \"#utility.yul\":3209:3218   */\n  dup4\n    /* \"#utility.yul\":3205:3222   */\n  add\n    /* \"#utility.yul\":3198:3245   */\n  mstore\n    /* \"#utility.yul\":3262:3393   */\n  tag_74\n    /* \"#utility.yul\":3388:3392   */\n  dup2\n    /* \"#utility.yul\":3262:3393   */\n  tag_67\n  jump\t// in\ntag_74:\n    /* \"#utility.yul\":3254:3393   */\n  swap1\n  pop\n    /* \"#utility.yul\":2981:3400   */\n  swap2\n  swap1\n  pop\n  jump\t// out\n    /* \"#utility.yul\":3406:3535   */\ntag_31:\n    /* \"#utility.yul\":3440:3446   */\n  0x00\n    /* \"#utility.yul\":3467:3487   */\n  tag_76\n  tag_77\n  jump\t// in\ntag_76:\n    /* \"#utility.yul\":3457:3487   */\n  swap1\n  pop\n    /* \"#utility.yul\":3496:3529   */\n  tag_78\n    /* \"#utility.yul\":3524:3528   */\n  dup3\n    /* \"#utility.yul\":3516:3522   */\n  dup3\n    /* \"#utility.yul\":3496:3529   */\n  tag_79\n  jump\t// in\ntag_78:\n    /* \"#utility.yul\":3406:3535   */\n  swap2\n  swap1\n  pop\n  jump\t// out\n    /* \"#utility.yul\":3541:3616   */\ntag_77:\n    /* \"#utility.yul\":3574:3580   */\n  0x00\n    /* \"#utility.yul\":3607:3609   */\n  0x40\n    /* \"#utility.yul\":3601:3610   */\n  mload\n    /* \"#utility.yul\":3591:3610   */\n  swap1\n  pop\n    /* \"#utility.yul\":3541:3616   */\n  swap1\n  jump\t// out\n    /* \"#utility.yul\":3622:3930   */\ntag_30:\n    /* \"#utility.yul\":3684:3688   */\n  0x00\n    /* \"#utility.yul\":3774:3792   */\n  0xffffffffffffffff\n    /* \"#utility.yul\":3766:3772   */\n  dup3\n    /* \"#utility.yul\":3763:3793   */\n  gt\n    /* \"#utility.yul\":3760:3816   */\n  iszero\n  tag_82\n  jumpi\n    /* \"#utility.yul\":3796:3814   */\n  tag_83\n  tag_84\n  jump\t// in\ntag_83:\n    /* \"#utility.yul\":3760:3816   */\ntag_82:\n    /* \"#utility.yul\":3834:3863   */\n  tag_85\n    /* \"#utility.yul\":3856:3862   */\n  dup3\n    /* \"#utility.yul\":3834:3863   */\n  tag_86\n  jump\t// in\ntag_85:\n    /* \"#utility.yul\":3826:3863   */\n  swap1\n  pop\n    /* \"#utility.yul\":3918:3922   */\n  0x20\n    /* \"#utility.yul\":3912:3916   */\n  dup2\n    /* \"#utility.yul\":3908:3923   */\n  add\n    /* \"#utility.yul\":3900:3923   */\n  swap1\n  pop\n    /* \"#utility.yul\":3622:3930   */\n  swap2\n  swap1\n  pop\n  jump\t// out\n    /* \"#utility.yul\":3936:4105   */\ntag_70:\n    /* \"#utility.yul\":4020:4031   */\n  0x00\n    /* \"#utility.yul\":4054:4060   */\n  dup3\n    /* \"#utility.yul\":4049:4052   */\n  dup3\n    /* \"#utility.yul\":4042:4061   */\n  mstore\n    /* \"#utility.yul\":4094:4098   */\n  0x20\n    /* \"#utility.yul\":4089:4092   */\n  dup3\n    /* \"#utility.yul\":4085:4099   */\n  add\n    /* \"#utility.yul\":4070:4099   */\n  swap1\n  pop\n    /* \"#utility.yul\":3936:4105   */\n  swap3\n  swap2\n  pop\n  pop\n  jump\t// out\n    /* \"#utility.yul\":4111:4207   */\ntag_88:\n    /* \"#utility.yul\":4148:4155   */\n  0x00\n    /* \"#utility.yul\":4177:4201   */\n  tag_90\n    /* \"#utility.yul\":4195:4200   */\n  dup3\n    /* \"#utility.yul\":4177:4201   */\n  tag_91\n  jump\t// in\ntag_90:\n    /* \"#utility.yul\":4166:4201   */\n  swap1\n  pop\n    /* \"#utility.yul\":4111:4207   */\n  swap2\n  swap1\n  pop\n  jump\t// out\n    /* \"#utility.yul\":4213:4339   */\ntag_91:\n    /* \"#utility.yul\":4250:4257   */\n  0x00\n    /* \"#utility.yul\":4290:4332   */\n  0xffffffffffffffffffffffffffffffffffffffff\n    /* \"#utility.yul\":4283:4288   */\n  dup3\n    /* \"#utility.yul\":4279:4333   */\n  and\n    /* \"#utility.yul\":4268:4333   */\n  swap1\n  pop\n    /* \"#utility.yul\":4213:4339   */\n  swap2\n  swap1\n  pop\n  jump\t// out\n    /* \"#utility.yul\":4345:4422   */\ntag_93:\n    /* \"#utility.yul\":4382:4389   */\n  0x00\n    /* \"#utility.yul\":4411:4416   */\n  dup2\n    /* \"#utility.yul\":4400:4416   */\n  swap1\n  pop\n    /* \"#utility.yul\":4345:4422   */\n  swap2\n  swap1\n  pop\n  jump\t// out\n    /* \"#utility.yul\":4428:4735   */\ntag_36:\n    /* \"#utility.yul\":4496:4497   */\n  0x00\n    /* \"#utility.yul\":4506:4619   */\ntag_96:\n    /* \"#utility.yul\":4520:4526   */\n  dup4\n    /* \"#utility.yul\":4517:4518   */\n  dup2\n    /* \"#utility.yul\":4514:4527   */\n  lt\n    /* \"#utility.yul\":4506:4619   */\n  iszero\n  tag_98\n  jumpi\n    /* \"#utility.yul\":4605:4606   */\n  dup1\n    /* \"#utility.yul\":4600:4603   */\n  dup3\n    /* \"#utility.yul\":4596:4607   */\n  add\n    /* \"#utility.yul\":4590:4608   */\n  mload\n    /* \"#utility.yul\":4586:4587   */\n  dup2\n    /* \"#utility.yul\":4581:4584   */\n  dup5\n    /* \"#utility.yul\":4577:4588   */\n  add\n    /* \"#utility.yul\":4570:4609   */\n  mstore\n    /* \"#utility.yul\":4542:4544   */\n  0x20\n    /* \"#utility.yul\":4539:4540   */\n  dup2\n    /* \"#utility.yul\":4535:4545   */\n  add\n    /* \"#utility.yul\":4530:4545   */\n  swap1\n  pop\n    /* \"#utility.yul\":4506:4619   */\n  jump(tag_96)\ntag_98:\n    /* \"#utility.yul\":4637:4643   */\n  dup4\n    /* \"#utility.yul\":4634:4635   */\n  dup2\n    /* \"#utility.yul\":4631:4644   */\n  gt\n    /* \"#utility.yul\":4628:4729   */\n  iszero\n  tag_99\n  jumpi\n    /* \"#utility.yul\":4717:4718   */\n  0x00\n    /* \"#utility.yul\":4708:4714   */\n  dup5\n    /* \"#utility.yul\":4703:4706   */\n  dup5\n    /* \"#utility.yul\":4699:4715   */\n  add\n    /* \"#utility.yul\":4692:4719   */\n  mstore\n    /* \"#utility.yul\":4628:4729   */\ntag_99:\n    /* \"#utility.yul\":4477:4735   */\n  pop\n    /* \"#utility.yul\":4428:4735   */\n  pop\n  pop\n  pop\n  jump\t// out\n    /* \"#utility.yul\":4741:5061   */\ntag_15:\n    /* \"#utility.yul\":4785:4791   */\n  0x00\n    /* \"#utility.yul\":4822:4823   */\n  0x02\n    /* \"#utility.yul\":4816:4820   */\n  dup3\n    /* \"#utility.yul\":4812:4824   */\n  div\n    /* \"#utility.yul\":4802:4824   */\n  swap1\n  pop\n    /* \"#utility.yul\":4869:4870   */\n  0x01\n    /* \"#utility.yul\":4863:4867   */\n  dup3\n    /* \"#utility.yul\":4859:4871   */\n  and\n    /* \"#utility.yul\":4890:4908   */\n  dup1\n    /* \"#utility.yul\":4880:4961   */\n  tag_101\n  jumpi\n    /* \"#utility.yul\":4946:4950   */\n  0x7f\n    /* \"#utility.yul\":4938:4944   */\n  dup3\n    /* \"#utility.yul\":4934:4951   */\n  and\n    /* \"#utility.yul\":4924:4951   */\n  swap2\n  pop\n    /* \"#utility.yul\":4880:4961   */\ntag_101:\n    /* \"#utility.yul\":5008:5010   */\n  0x20\n    /* \"#utility.yul\":5000:5006   */\n  dup3\n    /* \"#utility.yul\":4997:5011   */\n  lt\n    /* \"#utility.yul\":4977:4995   */\n  dup2\n    /* \"#utility.yul\":4974:5012   */\n  eq\n    /* \"#utility.yul\":4971:5055   */\n  iszero\n  tag_102\n  jumpi\n    /* \"#utility.yul\":5027:5045   */\n  tag_103\n  tag_104\n  jump\t// in\ntag_103:\n    /* \"#utility.yul\":4971:5055   */\ntag_102:\n    /* \"#utility.yul\":4792:5061   */\n  pop\n    /* \"#utility.yul\":4741:5061   */\n  swap2\n  swap1\n  pop\n  jump\t// out\n    /* \"#utility.yul\":5067:5348   */\ntag_79:\n    /* \"#utility.yul\":5150:5177   */\n  tag_106\n    /* \"#utility.yul\":5172:5176   */\n  dup3\n    /* \"#utility.yul\":5150:5177   */\n  tag_86\n  jump\t// in\ntag_106:\n    /* \"#utility.yul\":5142:5148   */\n  dup2\n    /* \"#utility.yul\":5138:5178   */\n  add\n    /* \"#utility.yul\":5280:5286   */\n  dup2\n    /* \"#utility.yul\":5268:5278   */\n  dup2\n    /* \"#utility.yul\":5265:5287   */\n  lt\n    /* \"#utility.yul\":5244:5262   */\n  0xffffffffffffffff\n    /* \"#utility.yul\":5232:5242   */\n  dup3\n    /* \"#utility.yul\":5229:5263   */\n  gt\n    /* \"#utility.yul\":5226:5288   */\n  or\n    /* \"#utility.yul\":5223:5311   */\n  iszero\n  tag_107\n  jumpi\n    /* \"#utility.yul\":5291:5309   */\n  tag_108\n  tag_84\n  jump\t// in\ntag_108:\n    /* \"#utility.yul\":5223:5311   */\ntag_107:\n    /* \"#utility.yul\":5331:5341   */\n  dup1\n    /* \"#utility.yul\":5327:5329   */\n  0x40\n    /* \"#utility.yul\":5320:5342   */\n  mstore\n    /* \"#utility.yul\":5110:5348   */\n  pop\n    /* \"#utility.yul\":5067:5348   */\n  pop\n  pop\n  jump\t// out\n    /* \"#utility.yul\":5354:5534   */\ntag_104:\n    /* \"#utility.yul\":5402:5479   */\n  0x4e487b7100000000000000000000000000000000000000000000000000000000\n    /* \"#utility.yul\":5399:5400   */\n  0x00\n    /* \"#utility.yul\":5392:5480   */\n  mstore\n    /* \"#utility.yul\":5499:5503   */\n  0x22\n    /* \"#utility.yul\":5496:5497   */\n  0x04\n    /* \"#utility.yul\":5489:5504   */\n  mstore\n    /* \"#utility.yul\":5523:5527   */\n  0x24\n    /* \"#utility.yul\":5520:5521   */\n  0x00\n    /* \"#utility.yul\":5513:5528   */\n  revert\n    /* \"#utility.yul\":5540:5720   */\ntag_84:\n    /* \"#utility.yul\":5588:5665   */\n  0x4e487b7100000000000000000000000000000000000000000000000000000000\n    /* \"#utility.yul\":5585:5586   */\n  0x00\n    /* \"#utility.yul\":5578:5666   */\n  mstore\n    /* \"#utility.yul\":5685:5689   */\n  0x41\n    /* \"#utility.yul\":5682:5683   */\n  0x04\n    /* \"#utility.yul\":5675:5690   */\n  mstore\n    /* \"#utility.yul\":5709:5713   */\n  0x24\n    /* \"#utility.yul\":5706:5707   */\n  0x00\n    /* \"#utility.yul\":5699:5714   */\n  revert\n    /* \"#utility.yul\":5726:5843   */\ntag_45:\n    /* \"#utility.yul\":5835:5836   */\n  0x00\n    /* \"#utility.yul\":5832:5833   */\n  dup1\n    /* \"#utility.yul\":5825:5837   */\n  revert\n    /* \"#utility.yul\":5849:5966   */\ntag_34:\n    /* \"#utility.yul\":5958:5959   */\n  0x00\n    /* \"#utility.yul\":5955:5956   */\n  dup1\n    /* \"#utility.yul\":5948:5960   */\n  revert\n    /* \"#utility.yul\":5972:6089   */\ntag_58:\n    /* \"#utility.yul\":6081:6082   */\n  0x00\n    /* \"#utility.yul\":6078:6079   */\n  dup1\n    /* \"#utility.yul\":6071:6083   */\n  revert\n    /* \"#utility.yul\":6095:6212   */\ntag_54:\n    /* \"#utility.yul\":6204:6205   */\n  0x00\n    /* \"#utility.yul\":6201:6202   */\n  dup1\n    /* \"#utility.yul\":6194:6206   */\n  revert\n    /* \"#utility.yul\":6218:6320   */\ntag_86:\n    /* \"#utility.yul\":6259:6265   */\n  0x00\n    /* \"#utility.yul\":6310:6312   */\n  0x1f\n    /* \"#utility.yul\":6306:6313   */\n  not\n    /* \"#utility.yul\":6301:6303   */\n  0x1f\n    /* \"#utility.yul\":6294:6299   */\n  dup4\n    /* \"#utility.yul\":6290:6304   */\n  add\n    /* \"#utility.yul\":6286:6314   */\n  and\n    /* \"#utility.yul\":6276:6314   */\n  swap1\n  pop\n    /* \"#utility.yul\":6218:6320   */\n  swap2\n  swap1\n  pop\n  jump\t// out\n    /* \"#utility.yul\":6326:6504   */\ntag_72:\n    /* \"#utility.yul\":6466:6496   */\n  0x536f6d656e746520206e6f7461206d61696f7220717565207472657300000000\n    /* \"#utility.yul\":6462:6463   */\n  0x00\n    /* \"#utility.yul\":6454:6460   */\n  dup3\n    /* \"#utility.yul\":6450:6464   */\n  add\n    /* \"#utility.yul\":6443:6497   */\n  mstore\n    /* \"#utility.yul\":6326:6504   */\n  pop\n  jump\t// out\n    /* \"#utility.yul\":6510:6632   */\ntag_40:\n    /* \"#utility.yul\":6583:6607   */\n  tag_118\n    /* \"#utility.yul\":6601:6606   */\n  dup2\n    /* \"#utility.yul\":6583:6607   */\n  tag_88\n  jump\t// in\ntag_118:\n    /* \"#utility.yul\":6576:6581   */\n  dup2\n    /* \"#utility.yul\":6573:6608   */\n  eq\n    /* \"#utility.yul\":6563:6626   */\n  tag_119\n  jumpi\n    /* \"#utility.yul\":6622:6623   */\n  0x00\n    /* \"#utility.yul\":6619:6620   */\n  dup1\n    /* \"#utility.yul\":6612:6624   */\n  revert\n    /* \"#utility.yul\":6563:6626   */\ntag_119:\n    /* \"#utility.yul\":6510:6632   */\n  pop\n  jump\t// out\n    /* \"#utility.yul\":6638:6760   */\ntag_50:\n    /* \"#utility.yul\":6711:6735   */\n  tag_121\n    /* \"#utility.yul\":6729:6734   */\n  dup2\n    /* \"#utility.yul\":6711:6735   */\n  tag_93\n  jump\t// in\ntag_121:\n    /* \"#utility.yul\":6704:6709   */\n  dup2\n    /* \"#utility.yul\":6701:6736   */\n  eq\n    /* \"#utility.yul\":6691:6754   */\n  tag_122\n  jumpi\n    /* \"#utility.yul\":6750:6751   */\n  0x00\n    /* \"#utility.yul\":6747:6748   */\n  dup1\n    /* \"#utility.yul\":6740:6752   */\n  revert\n    /* \"#utility.yul\":6691:6754   */\ntag_122:\n    /* \"#utility.yul\":6638:6760   */\n  pop\n  jump\t// out\n    /* \"contracts/contratoNotaMinima.sol\":230:1585  contract ContratoNotaMinima{... */\ntag_13:\n  dataSize(sub_0)\n  dup1\n  dataOffset(sub_0)\n  0x00\n  codecopy\n  0x00\n  return\nstop\n\nsub_0: assembly {\n        /* \"contracts/contratoNotaMinima.sol\":230:1585  contract ContratoNotaMinima{... */\n      mstore(0x40, 0x80)\n      callvalue\n      dup1\n      iszero\n      tag_1\n      jumpi\n      0x00\n      dup1\n      revert\n    tag_1:\n      pop\n      jumpi(tag_2, lt(calldatasize, 0x04))\n      shr(0xe0, calldataload(0x00))\n      dup1\n      0xb55d6b47\n      gt\n      tag_11\n      jumpi\n      dup1\n      0xb55d6b47\n      eq\n      tag_7\n      jumpi\n      dup1\n      0xfb0fc1c9\n      eq\n      tag_8\n      jumpi\n      dup1\n      0xfdf238f1\n      eq\n      tag_9\n      jumpi\n      dup1\n      0xfe9ef6f8\n      eq\n      tag_10\n      jumpi\n      jump(tag_2)\n    tag_11:\n      dup1\n      0x2d3e0c13\n      eq\n      tag_3\n      jumpi\n      dup1\n      0x354d4358\n      eq\n      tag_4\n      jumpi\n      dup1\n      0x39cf9ac9\n      eq\n      tag_5\n      jumpi\n      dup1\n      0x4bd17d79\n      eq\n      tag_6\n      jumpi\n    tag_2:\n      0x00\n      dup1\n      revert\n        /* \"contracts/contratoNotaMinima.sol\":354:382  string public objectContrato */\n    tag_3:\n      tag_12\n      tag_13\n      jump\t// in\n    tag_12:\n      mload(0x40)\n      tag_14\n      swap2\n      swap1\n      tag_15\n      jump\t// in\n    tag_14:\n      mload(0x40)\n      dup1\n      swap2\n      sub\n      swap1\n      return\n        /* \"contracts/contratoNotaMinima.sol\":1458:1583  function Quemtapedindo() public view returns (string memory, address) {... */\n    tag_4:\n      tag_16\n      tag_17\n      jump\t// in\n    tag_16:\n      mload(0x40)\n      tag_18\n      swap3\n      swap2\n      swap1\n      tag_19\n      jump\t// in\n    tag_18:\n      mload(0x40)\n      dup1\n      swap2\n      sub\n      swap1\n      return\n        /* \"contracts/contratoNotaMinima.sol\":263:288  Solicitado public Pessoa2 */\n    tag_5:\n      tag_20\n      tag_21\n      jump\t// in\n    tag_20:\n      mload(0x40)\n      tag_22\n      swap4\n      swap3\n      swap2\n      swap1\n      tag_23\n      jump\t// in\n    tag_22:\n      mload(0x40)\n      dup1\n      swap2\n      sub\n      swap1\n      return\n        /* \"contracts/contratoNotaMinima.sol\":900:995  function tempoContratoNota() public view returns (uint) {... */\n    tag_6:\n      tag_24\n      tag_25\n      jump\t// in\n    tag_24:\n      mload(0x40)\n      tag_26\n      swap2\n      swap1\n      tag_27\n      jump\t// in\n    tag_26:\n      mload(0x40)\n      dup1\n      swap2\n      sub\n      swap1\n      return\n        /* \"contracts/contratoNotaMinima.sol\":1001:1176  function Aceitar() public {... */\n    tag_7:\n      tag_28\n      tag_29\n      jump\t// in\n    tag_28:\n      stop\n        /* \"contracts/contratoNotaMinima.sol\":1182:1452  function terminarContrato() public {... */\n    tag_8:\n      tag_30\n      tag_31\n      jump\t// in\n    tag_30:\n      stop\n        /* \"contracts/contratoNotaMinima.sol\":294:320  Solicitante public Pessoa1 */\n    tag_9:\n      tag_32\n      tag_33\n      jump\t// in\n    tag_32:\n      mload(0x40)\n      tag_34\n      swap3\n      swap2\n      swap1\n      tag_35\n      jump\t// in\n    tag_34:\n      mload(0x40)\n      dup1\n      swap2\n      sub\n      swap1\n      return\n        /* \"contracts/contratoNotaMinima.sol\":388:413  uint256 public notaMinima */\n    tag_10:\n      tag_36\n      tag_37\n      jump\t// in\n    tag_36:\n      mload(0x40)\n      tag_38\n      swap2\n      swap1\n      tag_27\n      jump\t// in\n    tag_38:\n      mload(0x40)\n      dup1\n      swap2\n      sub\n      swap1\n      return\n        /* \"contracts/contratoNotaMinima.sol\":354:382  string public objectContrato */\n    tag_13:\n      0x06\n      dup1\n      sload\n      tag_39\n      swap1\n      tag_40\n      jump\t// in\n    tag_39:\n      dup1\n      0x1f\n      add\n      0x20\n      dup1\n      swap2\n      div\n      mul\n      0x20\n      add\n      mload(0x40)\n      swap1\n      dup2\n      add\n      0x40\n      mstore\n      dup1\n      swap3\n      swap2\n      swap1\n      dup2\n      dup2\n      mstore\n      0x20\n      add\n      dup3\n      dup1\n      sload\n      tag_41\n      swap1\n      tag_40\n      jump\t// in\n    tag_41:\n      dup1\n      iszero\n      tag_42\n      jumpi\n      dup1\n      0x1f\n      lt\n      tag_43\n      jumpi\n      0x0100\n      dup1\n      dup4\n      sload\n      div\n      mul\n      dup4\n      mstore\n      swap2\n      0x20\n      add\n      swap2\n      jump(tag_42)\n    tag_43:\n      dup3\n      add\n      swap2\n      swap1\n      0x00\n      mstore\n      keccak256(0x00, 0x20)\n      swap1\n    tag_44:\n      dup2\n      sload\n      dup2\n      mstore\n      swap1\n      0x01\n      add\n      swap1\n      0x20\n      add\n      dup1\n      dup4\n      gt\n      tag_44\n      jumpi\n      dup3\n      swap1\n      sub\n      0x1f\n      and\n      dup3\n      add\n      swap2\n    tag_42:\n      pop\n      pop\n      pop\n      pop\n      pop\n      dup2\n      jump\t// out\n        /* \"contracts/contratoNotaMinima.sol\":1458:1583  function Quemtapedindo() public view returns (string memory, address) {... */\n    tag_17:\n        /* \"contracts/contratoNotaMinima.sol\":1504:1517  string memory */\n      0x60\n        /* \"contracts/contratoNotaMinima.sol\":1519:1526  address */\n      0x00\n        /* \"contracts/contratoNotaMinima.sol\":1546:1553  Pessoa1 */\n      0x03\n        /* \"contracts/contratoNotaMinima.sol\":1546:1558  Pessoa1.nome */\n      0x01\n      add\n        /* \"contracts/contratoNotaMinima.sol\":1560:1567  Pessoa1 */\n      0x03\n        /* \"contracts/contratoNotaMinima.sol\":1560:1575  Pessoa1.pessoa1 */\n      0x00\n      add\n      0x00\n      swap1\n      sload\n      swap1\n      0x0100\n      exp\n      swap1\n      div\n      0xffffffffffffffffffffffffffffffffffffffff\n      and\n        /* \"contracts/contratoNotaMinima.sol\":1538:1576  return (Pessoa1.nome, Pessoa1.pessoa1) */\n      dup2\n      dup1\n      sload\n      tag_46\n      swap1\n      tag_40\n      jump\t// in\n    tag_46:\n      dup1\n      0x1f\n      add\n      0x20\n      dup1\n      swap2\n      div\n      mul\n      0x20\n      add\n      mload(0x40)\n      swap1\n      dup2\n      add\n      0x40\n      mstore\n      dup1\n      swap3\n      swap2\n      swap1\n      dup2\n      dup2\n      mstore\n      0x20\n      add\n      dup3\n      dup1\n      sload\n      tag_47\n      swap1\n      tag_40\n      jump\t// in\n    tag_47:\n      dup1\n      iszero\n      tag_48\n      jumpi\n      dup1\n      0x1f\n      lt\n      tag_49\n      jumpi\n      0x0100\n      dup1\n      dup4\n      sload\n      div\n      mul\n      dup4\n      mstore\n      swap2\n      0x20\n      add\n      swap2\n      jump(tag_48)\n    tag_49:\n      dup3\n      add\n      swap2\n      swap1\n      0x00\n      mstore\n      keccak256(0x00, 0x20)\n      swap1\n    tag_50:\n      dup2\n      sload\n      dup2\n      mstore\n      swap1\n      0x01\n      add\n      swap1\n      0x20\n      add\n      dup1\n      dup4\n      gt\n      tag_50\n      jumpi\n      dup3\n      swap1\n      sub\n      0x1f\n      and\n      dup3\n      add\n      swap2\n    tag_48:\n      pop\n      pop\n      pop\n      pop\n      pop\n      swap2\n      pop\n      swap2\n      pop\n      swap2\n      pop\n        /* \"contracts/contratoNotaMinima.sol\":1458:1583  function Quemtapedindo() public view returns (string memory, address) {... */\n      swap1\n      swap2\n      jump\t// out\n        /* \"contracts/contratoNotaMinima.sol\":263:288  Solicitado public Pessoa2 */\n    tag_21:\n      0x00\n      dup1\n      0x00\n      add\n      0x00\n      swap1\n      sload\n      swap1\n      0x0100\n      exp\n      swap1\n      div\n      0xffffffffffffffffffffffffffffffffffffffff\n      and\n      swap1\n      dup1\n      0x01\n      add\n      dup1\n      sload\n      tag_51\n      swap1\n      tag_40\n      jump\t// in\n    tag_51:\n      dup1\n      0x1f\n      add\n      0x20\n      dup1\n      swap2\n      div\n      mul\n      0x20\n      add\n      mload(0x40)\n      swap1\n      dup2\n      add\n      0x40\n      mstore\n      dup1\n      swap3\n      swap2\n      swap1\n      dup2\n      dup2\n      mstore\n      0x20\n      add\n      dup3\n      dup1\n      sload\n      tag_52\n      swap1\n      tag_40\n      jump\t// in\n    tag_52:\n      dup1\n      iszero\n      tag_53\n      jumpi\n      dup1\n      0x1f\n      lt\n      tag_54\n      jumpi\n      0x0100\n      dup1\n      dup4\n      sload\n      div\n      mul\n      dup4\n      mstore\n      swap2\n      0x20\n      add\n      swap2\n      jump(tag_53)\n    tag_54:\n      dup3\n      add\n      swap2\n      swap1\n      0x00\n      mstore\n      keccak256(0x00, 0x20)\n      swap1\n    tag_55:\n      dup2\n      sload\n      dup2\n      mstore\n      swap1\n      0x01\n      add\n      swap1\n      0x20\n      add\n      dup1\n      dup4\n      gt\n      tag_55\n      jumpi\n      dup3\n      swap1\n      sub\n      0x1f\n      and\n      dup3\n      add\n      swap2\n    tag_53:\n      pop\n      pop\n      pop\n      pop\n      pop\n      swap1\n      dup1\n      0x02\n      add\n      0x00\n      swap1\n      sload\n      swap1\n      0x0100\n      exp\n      swap1\n      div\n      0xff\n      and\n      swap1\n      pop\n      dup4\n      jump\t// out\n        /* \"contracts/contratoNotaMinima.sol\":900:995  function tempoContratoNota() public view returns (uint) {... */\n    tag_25:\n        /* \"contracts/contratoNotaMinima.sol\":950:954  uint */\n      0x00\n        /* \"contracts/contratoNotaMinima.sol\":973:988  block.timestamp */\n      timestamp\n        /* \"contracts/contratoNotaMinima.sol\":966:988  return block.timestamp */\n      swap1\n      pop\n        /* \"contracts/contratoNotaMinima.sol\":900:995  function tempoContratoNota() public view returns (uint) {... */\n      swap1\n      jump\t// out\n        /* \"contracts/contratoNotaMinima.sol\":1001:1176  function Aceitar() public {... */\n    tag_29:\n        /* \"contracts/contratoNotaMinima.sol\":1072:1079  Pessoa2 */\n      0x00\n        /* \"contracts/contratoNotaMinima.sol\":1072:1087  Pessoa2.pessoa2 */\n      dup1\n      add\n      0x00\n      swap1\n      sload\n      swap1\n      0x0100\n      exp\n      swap1\n      div\n      0xffffffffffffffffffffffffffffffffffffffff\n      and\n        /* \"contracts/contratoNotaMinima.sol\":1058:1087  msg.sender == Pessoa2.pessoa2 */\n      0xffffffffffffffffffffffffffffffffffffffff\n      and\n        /* \"contracts/contratoNotaMinima.sol\":1058:1068  msg.sender */\n      caller\n        /* \"contracts/contratoNotaMinima.sol\":1058:1087  msg.sender == Pessoa2.pessoa2 */\n      0xffffffffffffffffffffffffffffffffffffffff\n      and\n      eq\n        /* \"contracts/contratoNotaMinima.sol\":1037:1137  require(... */\n      tag_58\n      jumpi\n      mload(0x40)\n      0x08c379a000000000000000000000000000000000000000000000000000000000\n      dup2\n      mstore\n      0x04\n      add\n      tag_59\n      swap1\n      tag_60\n      jump\t// in\n    tag_59:\n      mload(0x40)\n      dup1\n      swap2\n      sub\n      swap1\n      revert\n    tag_58:\n        /* \"contracts/contratoNotaMinima.sol\":1165:1169  true */\n      0x01\n        /* \"contracts/contratoNotaMinima.sol\":1147:1154  Pessoa2 */\n      0x00\n        /* \"contracts/contratoNotaMinima.sol\":1147:1162  Pessoa2.aceitar */\n      0x02\n      add\n      0x00\n        /* \"contracts/contratoNotaMinima.sol\":1147:1169  Pessoa2.aceitar = true */\n      0x0100\n      exp\n      dup2\n      sload\n      dup2\n      0xff\n      mul\n      not\n      and\n      swap1\n      dup4\n      iszero\n      iszero\n      mul\n      or\n      swap1\n      sstore\n      pop\n        /* \"contracts/contratoNotaMinima.sol\":1001:1176  function Aceitar() public {... */\n      jump\t// out\n        /* \"contracts/contratoNotaMinima.sol\":1182:1452  function terminarContrato() public {... */\n    tag_31:\n        /* \"contracts/contratoNotaMinima.sol\":1262:1269  Pessoa2 */\n      0x00\n        /* \"contracts/contratoNotaMinima.sol\":1262:1277  Pessoa2.pessoa2 */\n      dup1\n      add\n      0x00\n      swap1\n      sload\n      swap1\n      0x0100\n      exp\n      swap1\n      div\n      0xffffffffffffffffffffffffffffffffffffffff\n      and\n        /* \"contracts/contratoNotaMinima.sol\":1248:1277  msg.sender == Pessoa2.pessoa2 */\n      0xffffffffffffffffffffffffffffffffffffffff\n      and\n        /* \"contracts/contratoNotaMinima.sol\":1248:1258  msg.sender */\n      caller\n        /* \"contracts/contratoNotaMinima.sol\":1248:1277  msg.sender == Pessoa2.pessoa2 */\n      0xffffffffffffffffffffffffffffffffffffffff\n      and\n      eq\n        /* \"contracts/contratoNotaMinima.sol\":1248:1326  msg.sender == Pessoa2.pessoa2 ||... */\n      dup1\n      tag_62\n      jumpi\n      pop\n        /* \"contracts/contratoNotaMinima.sol\":1311:1318  Pessoa1 */\n      0x03\n        /* \"contracts/contratoNotaMinima.sol\":1311:1326  Pessoa1.pessoa1 */\n      0x00\n      add\n      0x00\n      swap1\n      sload\n      swap1\n      0x0100\n      exp\n      swap1\n      div\n      0xffffffffffffffffffffffffffffffffffffffff\n      and\n        /* \"contracts/contratoNotaMinima.sol\":1297:1326  msg.sender == Pessoa1.pessoa1 */\n      0xffffffffffffffffffffffffffffffffffffffff\n      and\n        /* \"contracts/contratoNotaMinima.sol\":1297:1307  msg.sender */\n      caller\n        /* \"contracts/contratoNotaMinima.sol\":1297:1326  msg.sender == Pessoa1.pessoa1 */\n      0xffffffffffffffffffffffffffffffffffffffff\n      and\n      eq\n        /* \"contracts/contratoNotaMinima.sol\":1248:1326  msg.sender == Pessoa2.pessoa2 ||... */\n    tag_62:\n        /* \"contracts/contratoNotaMinima.sol\":1227:1376  require(... */\n      tag_63\n      jumpi\n      mload(0x40)\n      0x08c379a000000000000000000000000000000000000000000000000000000000\n      dup2\n      mstore\n      0x04\n      add\n      tag_64\n      swap1\n      tag_65\n      jump\t// in\n    tag_64:\n      mload(0x40)\n      dup1\n      swap2\n      sub\n      swap1\n      revert\n    tag_63:\n        /* \"contracts/contratoNotaMinima.sol\":1404:1409  false */\n      0x00\n        /* \"contracts/contratoNotaMinima.sol\":1386:1393  Pessoa2 */\n      dup1\n        /* \"contracts/contratoNotaMinima.sol\":1386:1401  Pessoa2.aceitar */\n      0x02\n      add\n      0x00\n        /* \"contracts/contratoNotaMinima.sol\":1386:1409  Pessoa2.aceitar = false */\n      0x0100\n      exp\n      dup2\n      sload\n      dup2\n      0xff\n      mul\n      not\n      and\n      swap1\n      dup4\n      iszero\n      iszero\n      mul\n      or\n      swap1\n      sstore\n      pop\n        /* \"contracts/contratoNotaMinima.sol\":1182:1452  function terminarContrato() public {... */\n      jump\t// out\n        /* \"contracts/contratoNotaMinima.sol\":294:320  Solicitante public Pessoa1 */\n    tag_33:\n      0x03\n      dup1\n      0x00\n      add\n      0x00\n      swap1\n      sload\n      swap1\n      0x0100\n      exp\n      swap1\n      div\n      0xffffffffffffffffffffffffffffffffffffffff\n      and\n      swap1\n      dup1\n      0x01\n      add\n      dup1\n      sload\n      tag_66\n      swap1\n      tag_40\n      jump\t// in\n    tag_66:\n      dup1\n      0x1f\n      add\n      0x20\n      dup1\n      swap2\n      div\n      mul\n      0x20\n      add\n      mload(0x40)\n      swap1\n      dup2\n      add\n      0x40\n      mstore\n      dup1\n      swap3\n      swap2\n      swap1\n      dup2\n      dup2\n      mstore\n      0x20\n      add\n      dup3\n      dup1\n      sload\n      tag_67\n      swap1\n      tag_40\n      jump\t// in\n    tag_67:\n      dup1\n      iszero\n      tag_68\n      jumpi\n      dup1\n      0x1f\n      lt\n      tag_69\n      jumpi\n      0x0100\n      dup1\n      dup4\n      sload\n      div\n      mul\n      dup4\n      mstore\n      swap2\n      0x20\n      add\n      swap2\n      jump(tag_68)\n    tag_69:\n      dup3\n      add\n      swap2\n      swap1\n      0x00\n      mstore\n      keccak256(0x00, 0x20)\n      swap1\n    tag_70:\n      dup2\n      sload\n      dup2\n      mstore\n      swap1\n      0x01\n      add\n      swap1\n      0x20\n      add\n      dup1\n      dup4\n      gt\n      tag_70\n      jumpi\n      dup3\n      swap1\n      sub\n      0x1f\n      and\n      dup3\n      add\n      swap2\n    tag_68:\n      pop\n      pop\n      pop\n      pop\n      pop\n      swap1\n      pop\n      dup3\n      jump\t// out\n        /* \"contracts/contratoNotaMinima.sol\":388:413  uint256 public notaMinima */\n    tag_37:\n      sload(0x07)\n      dup2\n      jump\t// out\n        /* \"#utility.yul\":7:125   */\n    tag_72:\n        /* \"#utility.yul\":94:118   */\n      tag_74\n        /* \"#utility.yul\":112:117   */\n      dup2\n        /* \"#utility.yul\":94:118   */\n      tag_75\n      jump\t// in\n    tag_74:\n        /* \"#utility.yul\":89:92   */\n      dup3\n        /* \"#utility.yul\":82:119   */\n      mstore\n        /* \"#utility.yul\":7:125   */\n      pop\n      pop\n      jump\t// out\n        /* \"#utility.yul\":131:240   */\n    tag_76:\n        /* \"#utility.yul\":212:233   */\n      tag_78\n        /* \"#utility.yul\":227:232   */\n      dup2\n        /* \"#utility.yul\":212:233   */\n      tag_79\n      jump\t// in\n    tag_78:\n        /* \"#utility.yul\":207:210   */\n      dup3\n        /* \"#utility.yul\":200:234   */\n      mstore\n        /* \"#utility.yul\":131:240   */\n      pop\n      pop\n      jump\t// out\n        /* \"#utility.yul\":246:610   */\n    tag_80:\n        /* \"#utility.yul\":334:337   */\n      0x00\n        /* \"#utility.yul\":362:401   */\n      tag_82\n        /* \"#utility.yul\":395:400   */\n      dup3\n        /* \"#utility.yul\":362:401   */\n      tag_83\n      jump\t// in\n    tag_82:\n        /* \"#utility.yul\":417:488   */\n      tag_84\n        /* \"#utility.yul\":481:487   */\n      dup2\n        /* \"#utility.yul\":476:479   */\n      dup6\n        /* \"#utility.yul\":417:488   */\n      tag_85\n      jump\t// in\n    tag_84:\n        /* \"#utility.yul\":410:488   */\n      swap4\n      pop\n        /* \"#utility.yul\":497:549   */\n      tag_86\n        /* \"#utility.yul\":542:548   */\n      dup2\n        /* \"#utility.yul\":537:540   */\n      dup6\n        /* \"#utility.yul\":530:534   */\n      0x20\n        /* \"#utility.yul\":523:528   */\n      dup7\n        /* \"#utility.yul\":519:535   */\n      add\n        /* \"#utility.yul\":497:549   */\n      tag_87\n      jump\t// in\n    tag_86:\n        /* \"#utility.yul\":574:603   */\n      tag_88\n        /* \"#utility.yul\":596:602   */\n      dup2\n        /* \"#utility.yul\":574:603   */\n      tag_89\n      jump\t// in\n    tag_88:\n        /* \"#utility.yul\":569:572   */\n      dup5\n        /* \"#utility.yul\":565:604   */\n      add\n        /* \"#utility.yul\":558:604   */\n      swap2\n      pop\n        /* \"#utility.yul\":338:610   */\n      pop\n        /* \"#utility.yul\":246:610   */\n      swap3\n      swap2\n      pop\n      pop\n      jump\t// out\n        /* \"#utility.yul\":616:982   */\n    tag_90:\n        /* \"#utility.yul\":758:761   */\n      0x00\n        /* \"#utility.yul\":779:846   */\n      tag_92\n        /* \"#utility.yul\":843:845   */\n      0x18\n        /* \"#utility.yul\":838:841   */\n      dup4\n        /* \"#utility.yul\":779:846   */\n      tag_85\n      jump\t// in\n    tag_92:\n        /* \"#utility.yul\":772:846   */\n      swap2\n      pop\n        /* \"#utility.yul\":855:948   */\n      tag_93\n        /* \"#utility.yul\":944:947   */\n      dup3\n        /* \"#utility.yul\":855:948   */\n      tag_94\n      jump\t// in\n    tag_93:\n        /* \"#utility.yul\":973:975   */\n      0x20\n        /* \"#utility.yul\":968:971   */\n      dup3\n        /* \"#utility.yul\":964:976   */\n      add\n        /* \"#utility.yul\":957:976   */\n      swap1\n      pop\n        /* \"#utility.yul\":616:982   */\n      swap2\n      swap1\n      pop\n      jump\t// out\n        /* \"#utility.yul\":988:1354   */\n    tag_95:\n        /* \"#utility.yul\":1130:1133   */\n      0x00\n        /* \"#utility.yul\":1151:1218   */\n      tag_97\n        /* \"#utility.yul\":1215:1217   */\n      0x2d\n        /* \"#utility.yul\":1210:1213   */\n      dup4\n        /* \"#utility.yul\":1151:1218   */\n      tag_85\n      jump\t// in\n    tag_97:\n        /* \"#utility.yul\":1144:1218   */\n      swap2\n      pop\n        /* \"#utility.yul\":1227:1320   */\n      tag_98\n        /* \"#utility.yul\":1316:1319   */\n      dup3\n        /* \"#utility.yul\":1227:1320   */\n      tag_99\n      jump\t// in\n    tag_98:\n        /* \"#utility.yul\":1345:1347   */\n      0x40\n        /* \"#utility.yul\":1340:1343   */\n      dup3\n        /* \"#utility.yul\":1336:1348   */\n      add\n        /* \"#utility.yul\":1329:1348   */\n      swap1\n      pop\n        /* \"#utility.yul\":988:1354   */\n      swap2\n      swap1\n      pop\n      jump\t// out\n        /* \"#utility.yul\":1360:1478   */\n    tag_100:\n        /* \"#utility.yul\":1447:1471   */\n      tag_102\n        /* \"#utility.yul\":1465:1470   */\n      dup2\n        /* \"#utility.yul\":1447:1471   */\n      tag_103\n      jump\t// in\n    tag_102:\n        /* \"#utility.yul\":1442:1445   */\n      dup3\n        /* \"#utility.yul\":1435:1472   */\n      mstore\n        /* \"#utility.yul\":1360:1478   */\n      pop\n      pop\n      jump\t// out\n        /* \"#utility.yul\":1484:1907   */\n    tag_35:\n        /* \"#utility.yul\":1625:1629   */\n      0x00\n        /* \"#utility.yul\":1663:1665   */\n      0x40\n        /* \"#utility.yul\":1652:1661   */\n      dup3\n        /* \"#utility.yul\":1648:1666   */\n      add\n        /* \"#utility.yul\":1640:1666   */\n      swap1\n      pop\n        /* \"#utility.yul\":1676:1747   */\n      tag_105\n        /* \"#utility.yul\":1744:1745   */\n      0x00\n        /* \"#utility.yul\":1733:1742   */\n      dup4\n        /* \"#utility.yul\":1729:1746   */\n      add\n        /* \"#utility.yul\":1720:1726   */\n      dup6\n        /* \"#utility.yul\":1676:1747   */\n      tag_72\n      jump\t// in\n    tag_105:\n        /* \"#utility.yul\":1794:1803   */\n      dup2\n        /* \"#utility.yul\":1788:1792   */\n      dup2\n        /* \"#utility.yul\":1784:1804   */\n      sub\n        /* \"#utility.yul\":1779:1781   */\n      0x20\n        /* \"#utility.yul\":1768:1777   */\n      dup4\n        /* \"#utility.yul\":1764:1782   */\n      add\n        /* \"#utility.yul\":1757:1805   */\n      mstore\n        /* \"#utility.yul\":1822:1900   */\n      tag_106\n        /* \"#utility.yul\":1895:1899   */\n      dup2\n        /* \"#utility.yul\":1886:1892   */\n      dup5\n        /* \"#utility.yul\":1822:1900   */\n      tag_80\n      jump\t// in\n    tag_106:\n        /* \"#utility.yul\":1814:1900   */\n      swap1\n      pop\n        /* \"#utility.yul\":1484:1907   */\n      swap4\n      swap3\n      pop\n      pop\n      pop\n      jump\t// out\n        /* \"#utility.yul\":1913:2434   */\n    tag_23:\n        /* \"#utility.yul\":2076:2080   */\n      0x00\n        /* \"#utility.yul\":2114:2116   */\n      0x60\n        /* \"#utility.yul\":2103:2112   */\n      dup3\n        /* \"#utility.yul\":2099:2117   */\n      add\n        /* \"#utility.yul\":2091:2117   */\n      swap1\n      pop\n        /* \"#utility.yul\":2127:2198   */\n      tag_108\n        /* \"#utility.yul\":2195:2196   */\n      0x00\n        /* \"#utility.yul\":2184:2193   */\n      dup4\n        /* \"#utility.yul\":2180:2197   */\n      add\n        /* \"#utility.yul\":2171:2177   */\n      dup7\n        /* \"#utility.yul\":2127:2198   */\n      tag_72\n      jump\t// in\n    tag_108:\n        /* \"#utility.yul\":2245:2254   */\n      dup2\n        /* \"#utility.yul\":2239:2243   */\n      dup2\n        /* \"#utility.yul\":2235:2255   */\n      sub\n        /* \"#utility.yul\":2230:2232   */\n      0x20\n        /* \"#utility.yul\":2219:2228   */\n      dup4\n        /* \"#utility.yul\":2215:2233   */\n      add\n        /* \"#utility.yul\":2208:2256   */\n      mstore\n        /* \"#utility.yul\":2273:2351   */\n      tag_109\n        /* \"#utility.yul\":2346:2350   */\n      dup2\n        /* \"#utility.yul\":2337:2343   */\n      dup6\n        /* \"#utility.yul\":2273:2351   */\n      tag_80\n      jump\t// in\n    tag_109:\n        /* \"#utility.yul\":2265:2351   */\n      swap1\n      pop\n        /* \"#utility.yul\":2361:2427   */\n      tag_110\n        /* \"#utility.yul\":2423:2425   */\n      0x40\n        /* \"#utility.yul\":2412:2421   */\n      dup4\n        /* \"#utility.yul\":2408:2426   */\n      add\n        /* \"#utility.yul\":2399:2405   */\n      dup5\n        /* \"#utility.yul\":2361:2427   */\n      tag_76\n      jump\t// in\n    tag_110:\n        /* \"#utility.yul\":1913:2434   */\n      swap5\n      swap4\n      pop\n      pop\n      pop\n      pop\n      jump\t// out\n        /* \"#utility.yul\":2440:2753   */\n    tag_15:\n        /* \"#utility.yul\":2553:2557   */\n      0x00\n        /* \"#utility.yul\":2591:2593   */\n      0x20\n        /* \"#utility.yul\":2580:2589   */\n      dup3\n        /* \"#utility.yul\":2576:2594   */\n      add\n        /* \"#utility.yul\":2568:2594   */\n      swap1\n      pop\n        /* \"#utility.yul\":2640:2649   */\n      dup2\n        /* \"#utility.yul\":2634:2638   */\n      dup2\n        /* \"#utility.yul\":2630:2650   */\n      sub\n        /* \"#utility.yul\":2626:2627   */\n      0x00\n        /* \"#utility.yul\":2615:2624   */\n      dup4\n        /* \"#utility.yul\":2611:2628   */\n      add\n        /* \"#utility.yul\":2604:2651   */\n      mstore\n        /* \"#utility.yul\":2668:2746   */\n      tag_112\n        /* \"#utility.yul\":2741:2745   */\n      dup2\n        /* \"#utility.yul\":2732:2738   */\n      dup5\n        /* \"#utility.yul\":2668:2746   */\n      tag_80\n      jump\t// in\n    tag_112:\n        /* \"#utility.yul\":2660:2746   */\n      swap1\n      pop\n        /* \"#utility.yul\":2440:2753   */\n      swap3\n      swap2\n      pop\n      pop\n      jump\t// out\n        /* \"#utility.yul\":2759:3182   */\n    tag_19:\n        /* \"#utility.yul\":2900:2904   */\n      0x00\n        /* \"#utility.yul\":2938:2940   */\n      0x40\n        /* \"#utility.yul\":2927:2936   */\n      dup3\n        /* \"#utility.yul\":2923:2941   */\n      add\n        /* \"#utility.yul\":2915:2941   */\n      swap1\n      pop\n        /* \"#utility.yul\":2987:2996   */\n      dup2\n        /* \"#utility.yul\":2981:2985   */\n      dup2\n        /* \"#utility.yul\":2977:2997   */\n      sub\n        /* \"#utility.yul\":2973:2974   */\n      0x00\n        /* \"#utility.yul\":2962:2971   */\n      dup4\n        /* \"#utility.yul\":2958:2975   */\n      add\n        /* \"#utility.yul\":2951:2998   */\n      mstore\n        /* \"#utility.yul\":3015:3093   */\n      tag_114\n        /* \"#utility.yul\":3088:3092   */\n      dup2\n        /* \"#utility.yul\":3079:3085   */\n      dup6\n        /* \"#utility.yul\":3015:3093   */\n      tag_80\n      jump\t// in\n    tag_114:\n        /* \"#utility.yul\":3007:3093   */\n      swap1\n      pop\n        /* \"#utility.yul\":3103:3175   */\n      tag_115\n        /* \"#utility.yul\":3171:3173   */\n      0x20\n        /* \"#utility.yul\":3160:3169   */\n      dup4\n        /* \"#utility.yul\":3156:3174   */\n      add\n        /* \"#utility.yul\":3147:3153   */\n      dup5\n        /* \"#utility.yul\":3103:3175   */\n      tag_72\n      jump\t// in\n    tag_115:\n        /* \"#utility.yul\":2759:3182   */\n      swap4\n      swap3\n      pop\n      pop\n      pop\n      jump\t// out\n        /* \"#utility.yul\":3188:3607   */\n    tag_60:\n        /* \"#utility.yul\":3354:3358   */\n      0x00\n        /* \"#utility.yul\":3392:3394   */\n      0x20\n        /* \"#utility.yul\":3381:3390   */\n      dup3\n        /* \"#utility.yul\":3377:3395   */\n      add\n        /* \"#utility.yul\":3369:3395   */\n      swap1\n      pop\n        /* \"#utility.yul\":3441:3450   */\n      dup2\n        /* \"#utility.yul\":3435:3439   */\n      dup2\n        /* \"#utility.yul\":3431:3451   */\n      sub\n        /* \"#utility.yul\":3427:3428   */\n      0x00\n        /* \"#utility.yul\":3416:3425   */\n      dup4\n        /* \"#utility.yul\":3412:3429   */\n      add\n        /* \"#utility.yul\":3405:3452   */\n      mstore\n        /* \"#utility.yul\":3469:3600   */\n      tag_117\n        /* \"#utility.yul\":3595:3599   */\n      dup2\n        /* \"#utility.yul\":3469:3600   */\n      tag_90\n      jump\t// in\n    tag_117:\n        /* \"#utility.yul\":3461:3600   */\n      swap1\n      pop\n        /* \"#utility.yul\":3188:3607   */\n      swap2\n      swap1\n      pop\n      jump\t// out\n        /* \"#utility.yul\":3613:4032   */\n    tag_65:\n        /* \"#utility.yul\":3779:3783   */\n      0x00\n        /* \"#utility.yul\":3817:3819   */\n      0x20\n        /* \"#utility.yul\":3806:3815   */\n      dup3\n        /* \"#utility.yul\":3802:3820   */\n      add\n        /* \"#utility.yul\":3794:3820   */\n      swap1\n      pop\n        /* \"#utility.yul\":3866:3875   */\n      dup2\n        /* \"#utility.yul\":3860:3864   */\n      dup2\n        /* \"#utility.yul\":3856:3876   */\n      sub\n        /* \"#utility.yul\":3852:3853   */\n      0x00\n        /* \"#utility.yul\":3841:3850   */\n      dup4\n        /* \"#utility.yul\":3837:3854   */\n      add\n        /* \"#utility.yul\":3830:3877   */\n      mstore\n        /* \"#utility.yul\":3894:4025   */\n      tag_119\n        /* \"#utility.yul\":4020:4024   */\n      dup2\n        /* \"#utility.yul\":3894:4025   */\n      tag_95\n      jump\t// in\n    tag_119:\n        /* \"#utility.yul\":3886:4025   */\n      swap1\n      pop\n        /* \"#utility.yul\":3613:4032   */\n      swap2\n      swap1\n      pop\n      jump\t// out\n        /* \"#utility.yul\":4038:4260   */\n    tag_27:\n        /* \"#utility.yul\":4131:4135   */\n      0x00\n        /* \"#utility.yul\":4169:4171   */\n      0x20\n        /* \"#utility.yul\":4158:4167   */\n      dup3\n        /* \"#utility.yul\":4154:4172   */\n      add\n        /* \"#utility.yul\":4146:4172   */\n      swap1\n      pop\n        /* \"#utility.yul\":4182:4253   */\n      tag_121\n        /* \"#utility.yul\":4250:4251   */\n      0x00\n        /* \"#utility.yul\":4239:4248   */\n      dup4\n        /* \"#utility.yul\":4235:4252   */\n      add\n        /* \"#utility.yul\":4226:4232   */\n      dup5\n        /* \"#utility.yul\":4182:4253   */\n      tag_100\n      jump\t// in\n    tag_121:\n        /* \"#utility.yul\":4038:4260   */\n      swap3\n      swap2\n      pop\n      pop\n      jump\t// out\n        /* \"#utility.yul\":4266:4365   */\n    tag_83:\n        /* \"#utility.yul\":4318:4324   */\n      0x00\n        /* \"#utility.yul\":4352:4357   */\n      dup2\n        /* \"#utility.yul\":4346:4358   */\n      mload\n        /* \"#utility.yul\":4336:4358   */\n      swap1\n      pop\n        /* \"#utility.yul\":4266:4365   */\n      swap2\n      swap1\n      pop\n      jump\t// out\n        /* \"#utility.yul\":4371:4540   */\n    tag_85:\n        /* \"#utility.yul\":4455:4466   */\n      0x00\n        /* \"#utility.yul\":4489:4495   */\n      dup3\n        /* \"#utility.yul\":4484:4487   */\n      dup3\n        /* \"#utility.yul\":4477:4496   */\n      mstore\n        /* \"#utility.yul\":4529:4533   */\n      0x20\n        /* \"#utility.yul\":4524:4527   */\n      dup3\n        /* \"#utility.yul\":4520:4534   */\n      add\n        /* \"#utility.yul\":4505:4534   */\n      swap1\n      pop\n        /* \"#utility.yul\":4371:4540   */\n      swap3\n      swap2\n      pop\n      pop\n      jump\t// out\n        /* \"#utility.yul\":4546:4642   */\n    tag_75:\n        /* \"#utility.yul\":4583:4590   */\n      0x00\n        /* \"#utility.yul\":4612:4636   */\n      tag_125\n        /* \"#utility.yul\":4630:4635   */\n      dup3\n        /* \"#utility.yul\":4612:4636   */\n      tag_126\n      jump\t// in\n    tag_125:\n        /* \"#utility.yul\":4601:4636   */\n      swap1\n      pop\n        /* \"#utility.yul\":4546:4642   */\n      swap2\n      swap1\n      pop\n      jump\t// out\n        /* \"#utility.yul\":4648:4738   */\n    tag_79:\n        /* \"#utility.yul\":4682:4689   */\n      0x00\n        /* \"#utility.yul\":4725:4730   */\n      dup2\n        /* \"#utility.yul\":4718:4731   */\n      iszero\n        /* \"#utility.yul\":4711:4732   */\n      iszero\n        /* \"#utility.yul\":4700:4732   */\n      swap1\n      pop\n        /* \"#utility.yul\":4648:4738   */\n      swap2\n      swap1\n      pop\n      jump\t// out\n        /* \"#utility.yul\":4744:4870   */\n    tag_126:\n        /* \"#utility.yul\":4781:4788   */\n      0x00\n        /* \"#utility.yul\":4821:4863   */\n      0xffffffffffffffffffffffffffffffffffffffff\n        /* \"#utility.yul\":4814:4819   */\n      dup3\n        /* \"#utility.yul\":4810:4864   */\n      and\n        /* \"#utility.yul\":4799:4864   */\n      swap1\n      pop\n        /* \"#utility.yul\":4744:4870   */\n      swap2\n      swap1\n      pop\n      jump\t// out\n        /* \"#utility.yul\":4876:4953   */\n    tag_103:\n        /* \"#utility.yul\":4913:4920   */\n      0x00\n        /* \"#utility.yul\":4942:4947   */\n      dup2\n        /* \"#utility.yul\":4931:4947   */\n      swap1\n      pop\n        /* \"#utility.yul\":4876:4953   */\n      swap2\n      swap1\n      pop\n      jump\t// out\n        /* \"#utility.yul\":4959:5266   */\n    tag_87:\n        /* \"#utility.yul\":5027:5028   */\n      0x00\n        /* \"#utility.yul\":5037:5150   */\n    tag_131:\n        /* \"#utility.yul\":5051:5057   */\n      dup4\n        /* \"#utility.yul\":5048:5049   */\n      dup2\n        /* \"#utility.yul\":5045:5058   */\n      lt\n        /* \"#utility.yul\":5037:5150   */\n      iszero\n      tag_133\n      jumpi\n        /* \"#utility.yul\":5136:5137   */\n      dup1\n        /* \"#utility.yul\":5131:5134   */\n      dup3\n        /* \"#utility.yul\":5127:5138   */\n      add\n        /* \"#utility.yul\":5121:5139   */\n      mload\n        /* \"#utility.yul\":5117:5118   */\n      dup2\n        /* \"#utility.yul\":5112:5115   */\n      dup5\n        /* \"#utility.yul\":5108:5119   */\n      add\n        /* \"#utility.yul\":5101:5140   */\n      mstore\n        /* \"#utility.yul\":5073:5075   */\n      0x20\n        /* \"#utility.yul\":5070:5071   */\n      dup2\n        /* \"#utility.yul\":5066:5076   */\n      add\n        /* \"#utility.yul\":5061:5076   */\n      swap1\n      pop\n        /* \"#utility.yul\":5037:5150   */\n      jump(tag_131)\n    tag_133:\n        /* \"#utility.yul\":5168:5174   */\n      dup4\n        /* \"#utility.yul\":5165:5166   */\n      dup2\n        /* \"#utility.yul\":5162:5175   */\n      gt\n        /* \"#utility.yul\":5159:5260   */\n      iszero\n      tag_134\n      jumpi\n        /* \"#utility.yul\":5248:5249   */\n      0x00\n        /* \"#utility.yul\":5239:5245   */\n      dup5\n        /* \"#utility.yul\":5234:5237   */\n      dup5\n        /* \"#utility.yul\":5230:5246   */\n      add\n        /* \"#utility.yul\":5223:5250   */\n      mstore\n        /* \"#utility.yul\":5159:5260   */\n    tag_134:\n        /* \"#utility.yul\":5008:5266   */\n      pop\n        /* \"#utility.yul\":4959:5266   */\n      pop\n      pop\n      pop\n      jump\t// out\n        /* \"#utility.yul\":5272:5592   */\n    tag_40:\n        /* \"#utility.yul\":5316:5322   */\n      0x00\n        /* \"#utility.yul\":5353:5354   */\n      0x02\n        /* \"#utility.yul\":5347:5351   */\n      dup3\n        /* \"#utility.yul\":5343:5355   */\n      div\n        /* \"#utility.yul\":5333:5355   */\n      swap1\n      pop\n        /* \"#utility.yul\":5400:5401   */\n      0x01\n        /* \"#utility.yul\":5394:5398   */\n      dup3\n        /* \"#utility.yul\":5390:5402   */\n      and\n        /* \"#utility.yul\":5421:5439   */\n      dup1\n        /* \"#utility.yul\":5411:5492   */\n      tag_136\n      jumpi\n        /* \"#utility.yul\":5477:5481   */\n      0x7f\n        /* \"#utility.yul\":5469:5475   */\n      dup3\n        /* \"#utility.yul\":5465:5482   */\n      and\n        /* \"#utility.yul\":5455:5482   */\n      swap2\n      pop\n        /* \"#utility.yul\":5411:5492   */\n    tag_136:\n        /* \"#utility.yul\":5539:5541   */\n      0x20\n        /* \"#utility.yul\":5531:5537   */\n      dup3\n        /* \"#utility.yul\":5528:5542   */\n      lt\n        /* \"#utility.yul\":5508:5526   */\n      dup2\n        /* \"#utility.yul\":5505:5543   */\n      eq\n        /* \"#utility.yul\":5502:5586   */\n      iszero\n      tag_137\n      jumpi\n        /* \"#utility.yul\":5558:5576   */\n      tag_138\n      tag_139\n      jump\t// in\n    tag_138:\n        /* \"#utility.yul\":5502:5586   */\n    tag_137:\n        /* \"#utility.yul\":5323:5592   */\n      pop\n        /* \"#utility.yul\":5272:5592   */\n      swap2\n      swap1\n      pop\n      jump\t// out\n        /* \"#utility.yul\":5598:5778   */\n    tag_139:\n        /* \"#utility.yul\":5646:5723   */\n      0x4e487b7100000000000000000000000000000000000000000000000000000000\n        /* \"#utility.yul\":5643:5644   */\n      0x00\n        /* \"#utility.yul\":5636:5724   */\n      mstore\n        /* \"#utility.yul\":5743:5747   */\n      0x22\n        /* \"#utility.yul\":5740:5741   */\n      0x04\n        /* \"#utility.yul\":5733:5748   */\n      mstore\n        /* \"#utility.yul\":5767:5771   */\n      0x24\n        /* \"#utility.yul\":5764:5765   */\n      0x00\n        /* \"#utility.yul\":5757:5772   */\n      revert\n        /* \"#utility.yul\":5784:5886   */\n    tag_89:\n        /* \"#utility.yul\":5825:5831   */\n      0x00\n        /* \"#utility.yul\":5876:5878   */\n      0x1f\n        /* \"#utility.yul\":5872:5879   */\n      not\n        /* \"#utility.yul\":5867:5869   */\n      0x1f\n        /* \"#utility.yul\":5860:5865   */\n      dup4\n        /* \"#utility.yul\":5856:5870   */\n      add\n        /* \"#utility.yul\":5852:5880   */\n      and\n        /* \"#utility.yul\":5842:5880   */\n      swap1\n      pop\n        /* \"#utility.yul\":5784:5886   */\n      swap2\n      swap1\n      pop\n      jump\t// out\n        /* \"#utility.yul\":5892:6066   */\n    tag_94:\n        /* \"#utility.yul\":6032:6058   */\n      0x566f63652074656d20756d6120736f6c696369746163616f0000000000000000\n        /* \"#utility.yul\":6028:6029   */\n      0x00\n        /* \"#utility.yul\":6020:6026   */\n      dup3\n        /* \"#utility.yul\":6016:6030   */\n      add\n        /* \"#utility.yul\":6009:6059   */\n      mstore\n        /* \"#utility.yul\":5892:6066   */\n      pop\n      jump\t// out\n        /* \"#utility.yul\":6072:6304   */\n    tag_99:\n        /* \"#utility.yul\":6212:6246   */\n      0x566f6365206e616f20706f646520726574697261722061206e6f746120717565\n        /* \"#utility.yul\":6208:6209   */\n      0x00\n        /* \"#utility.yul\":6200:6206   */\n      dup3\n        /* \"#utility.yul\":6196:6210   */\n      add\n        /* \"#utility.yul\":6189:6247   */\n      mstore\n        /* \"#utility.yul\":6281:6296   */\n      0x206e616f20646575206b6b6b6b00000000000000000000000000000000000000\n        /* \"#utility.yul\":6276:6278   */\n      0x20\n        /* \"#utility.yul\":6268:6274   */\n      dup3\n        /* \"#utility.yul\":6264:6279   */\n      add\n        /* \"#utility.yul\":6257:6297   */\n      mstore\n        /* \"#utility.yul\":6072:6304   */\n      pop\n      jump\t// out\n\n    auxdata: 0xa264697066735822122062cebb0049eb815592bfc890d04eb66d5d7cb83b2a8ce50bce6beaef1dacec4c64736f6c63430008070033\n}\n",
				"bytecode": {
					"linkReferences": {},
					"object": "60806040523480156200001157600080fd5b5060405162000fb438038062000fb48339818101604052810190620000379190620002cb565b60038210156200007e576040517f08c379a00000000000000000000000000000000000000000000000000000000081526004016200007590620003d7565b60405180910390fd5b816007819055508060036001019080519060200190620000a09291906200016f565b50846000800160006101000a81548173ffffffffffffffffffffffffffffffffffffffff021916908373ffffffffffffffffffffffffffffffffffffffff1602179055508360006001019080519060200190620000ff9291906200016f565b504260058190555082600690805190602001906200011f9291906200016f565b5033600360000160006101000a81548173ffffffffffffffffffffffffffffffffffffffff021916908373ffffffffffffffffffffffffffffffffffffffff160217905550505050505062000629565b8280546200017d90620004dd565b90600052602060002090601f016020900481019282620001a15760008555620001ed565b82601f10620001bc57805160ff1916838001178555620001ed565b82800160010185558215620001ed579182015b82811115620001ec578251825591602001919060010190620001cf565b5b509050620001fc919062000200565b5090565b5b808211156200021b57600081600090555060010162000201565b5090565b600062000236620002308462000422565b620003f9565b905082815260208101848484011115620002555762000254620005ac565b5b62000262848285620004a7565b509392505050565b6000815190506200027b81620005f5565b92915050565b600082601f830112620002995762000298620005a7565b5b8151620002ab8482602086016200021f565b91505092915050565b600081519050620002c5816200060f565b92915050565b600080600080600060a08688031215620002ea57620002e9620005b6565b5b6000620002fa888289016200026a565b955050602086015167ffffffffffffffff8111156200031e576200031d620005b1565b5b6200032c8882890162000281565b945050604086015167ffffffffffffffff81111562000350576200034f620005b1565b5b6200035e8882890162000281565b93505060606200037188828901620002b4565b925050608086015167ffffffffffffffff811115620003955762000394620005b1565b5b620003a38882890162000281565b9150509295509295909350565b6000620003bf601c8362000458565b9150620003cc82620005cc565b602082019050919050565b60006020820190508181036000830152620003f281620003b0565b9050919050565b60006200040562000418565b905062000413828262000513565b919050565b6000604051905090565b600067ffffffffffffffff82111562000440576200043f62000578565b5b6200044b82620005bb565b9050602081019050919050565b600082825260208201905092915050565b600062000476826200047d565b9050919050565b600073ffffffffffffffffffffffffffffffffffffffff82169050919050565b6000819050919050565b60005b83811015620004c7578082015181840152602081019050620004aa565b83811115620004d7576000848401525b50505050565b60006002820490506001821680620004f657607f821691505b602082108114156200050d576200050c62000549565b5b50919050565b6200051e82620005bb565b810181811067ffffffffffffffff8211171562000540576200053f62000578565b5b80604052505050565b7f4e487b7100000000000000000000000000000000000000000000000000000000600052602260045260246000fd5b7f4e487b7100000000000000000000000000000000000000000000000000000000600052604160045260246000fd5b600080fd5b600080fd5b600080fd5b600080fd5b6000601f19601f8301169050919050565b7f536f6d656e746520206e6f7461206d61696f7220717565207472657300000000600082015250565b620006008162000469565b81146200060c57600080fd5b50565b6200061a816200049d565b81146200062657600080fd5b50565b61097b80620006396000396000f3fe608060405234801561001057600080fd5b50600436106100885760003560e01c8063b55d6b471161005b578063b55d6b4714610108578063fb0fc1c914610112578063fdf238f11461011c578063fe9ef6f81461013b57610088565b80632d3e0c131461008d578063354d4358146100ab57806339cf9ac9146100ca5780634bd17d79146100ea575b600080fd5b610095610159565b6040516100a29190610717565b60405180910390f35b6100b36101e7565b6040516100c1929190610739565b60405180910390f35b6100d26102aa565b6040516100e1939291906106d9565b60405180910390f35b6100f2610377565b6040516100ff91906107a9565b60405180910390f35b61011061037f565b005b61011a610431565b005b61012461053d565b6040516101329291906106a9565b60405180910390f35b6101436105f7565b60405161015091906107a9565b60405180910390f35b600680546101669061085b565b80601f01602080910402602001604051908101604052809291908181526020018280546101929061085b565b80156101df5780601f106101b4576101008083540402835291602001916101df565b820191906000526020600020905b8154815290600101906020018083116101c257829003601f168201915b505050505081565b606060006003600101600360000160009054906101000a900473ffffffffffffffffffffffffffffffffffffffff168180546102229061085b565b80601f016020809104026020016040519081016040528092919081815260200182805461024e9061085b565b801561029b5780601f106102705761010080835404028352916020019161029b565b820191906000526020600020905b81548152906001019060200180831161027e57829003601f168201915b50505050509150915091509091565b60008060000160009054906101000a900473ffffffffffffffffffffffffffffffffffffffff16908060010180546102e19061085b565b80601f016020809104026020016040519081016040528092919081815260200182805461030d9061085b565b801561035a5780601f1061032f5761010080835404028352916020019161035a565b820191906000526020600020905b81548152906001019060200180831161033d57829003601f168201915b5050505050908060020160009054906101000a900460ff16905083565b600042905090565b6000800160009054906101000a900473ffffffffffffffffffffffffffffffffffffffff1673ffffffffffffffffffffffffffffffffffffffff163373ffffffffffffffffffffffffffffffffffffffff1614610411576040517f08c379a000000000000000000000000000000000000000000000000000000000815260040161040890610769565b60405180910390fd5b6001600060020160006101000a81548160ff021916908315150217905550565b6000800160009054906101000a900473ffffffffffffffffffffffffffffffffffffffff1673ffffffffffffffffffffffffffffffffffffffff163373ffffffffffffffffffffffffffffffffffffffff1614806104df5750600360000160009054906101000a900473ffffffffffffffffffffffffffffffffffffffff1673ffffffffffffffffffffffffffffffffffffffff163373ffffffffffffffffffffffffffffffffffffffff16145b61051e576040517f08c379a000000000000000000000000000000000000000000000000000000000815260040161051590610789565b60405180910390fd5b60008060020160006101000a81548160ff021916908315150217905550565b60038060000160009054906101000a900473ffffffffffffffffffffffffffffffffffffffff16908060010180546105749061085b565b80601f01602080910402602001604051908101604052809291908181526020018280546105a09061085b565b80156105ed5780601f106105c2576101008083540402835291602001916105ed565b820191906000526020600020905b8154815290600101906020018083116105d057829003601f168201915b5050505050905082565b60075481565b610606816107e0565b82525050565b610615816107f2565b82525050565b6000610626826107c4565b61063081856107cf565b9350610640818560208601610828565b610649816108bc565b840191505092915050565b60006106616018836107cf565b915061066c826108cd565b602082019050919050565b6000610684602d836107cf565b915061068f826108f6565b604082019050919050565b6106a38161081e565b82525050565b60006040820190506106be60008301856105fd565b81810360208301526106d0818461061b565b90509392505050565b60006060820190506106ee60008301866105fd565b8181036020830152610700818561061b565b905061070f604083018461060c565b949350505050565b60006020820190508181036000830152610731818461061b565b905092915050565b60006040820190508181036000830152610753818561061b565b905061076260208301846105fd565b9392505050565b6000602082019050818103600083015261078281610654565b9050919050565b600060208201905081810360008301526107a281610677565b9050919050565b60006020820190506107be600083018461069a565b92915050565b600081519050919050565b600082825260208201905092915050565b60006107eb826107fe565b9050919050565b60008115159050919050565b600073ffffffffffffffffffffffffffffffffffffffff82169050919050565b6000819050919050565b60005b8381101561084657808201518184015260208101905061082b565b83811115610855576000848401525b50505050565b6000600282049050600182168061087357607f821691505b602082108114156108875761088661088d565b5b50919050565b7f4e487b7100000000000000000000000000000000000000000000000000000000600052602260045260246000fd5b6000601f19601f8301169050919050565b7f566f63652074656d20756d6120736f6c696369746163616f0000000000000000600082015250565b7f566f6365206e616f20706f646520726574697261722061206e6f74612071756560008201527f206e616f20646575206b6b6b6b0000000000000000000000000000000000000060208201525056fea264697066735822122062cebb0049eb815592bfc890d04eb66d5d7cb83b2a8ce50bce6beaef1dacec4c64736f6c63430008070033",
					"opcodes": "PUSH1 0x80 PUSH1 0x40 MSTORE CALLVALUE DUP1 ISZERO PUSH3 0x11 JUMPI PUSH1 0x0 DUP1 REVERT JUMPDEST POP PUSH1 0x40 MLOAD PUSH3 0xFB4 CODESIZE SUB DUP1 PUSH3 0xFB4 DUP4 CODECOPY DUP2 DUP2 ADD PUSH1 0x40 MSTORE DUP2 ADD SWAP1 PUSH3 0x37 SWAP2 SWAP1 PUSH3 0x2CB JUMP JUMPDEST PUSH1 0x3 DUP3 LT ISZERO PUSH3 0x7E JUMPI PUSH1 0x40 MLOAD PUSH32 0x8C379A000000000000000000000000000000000000000000000000000000000 DUP2 MSTORE PUSH1 0x4 ADD PUSH3 0x75 SWAP1 PUSH3 0x3D7 JUMP JUMPDEST PUSH1 0x40 MLOAD DUP1 SWAP2 SUB SWAP1 REVERT JUMPDEST DUP2 PUSH1 0x7 DUP2 SWAP1 SSTORE POP DUP1 PUSH1 0x3 PUSH1 0x1 ADD SWAP1 DUP1 MLOAD SWAP1 PUSH1 0x20 ADD SWAP1 PUSH3 0xA0 SWAP3 SWAP2 SWAP1 PUSH3 0x16F JUMP JUMPDEST POP DUP5 PUSH1 0x0 DUP1 ADD PUSH1 0x0 PUSH2 0x100 EXP DUP2 SLOAD DUP2 PUSH20 0xFFFFFFFFFFFFFFFFFFFFFFFFFFFFFFFFFFFFFFFF MUL NOT AND SWAP1 DUP4 PUSH20 0xFFFFFFFFFFFFFFFFFFFFFFFFFFFFFFFFFFFFFFFF AND MUL OR SWAP1 SSTORE POP DUP4 PUSH1 0x0 PUSH1 0x1 ADD SWAP1 DUP1 MLOAD SWAP1 PUSH1 0x20 ADD SWAP1 PUSH3 0xFF SWAP3 SWAP2 SWAP1 PUSH3 0x16F JUMP JUMPDEST POP TIMESTAMP PUSH1 0x5 DUP2 SWAP1 SSTORE POP DUP3 PUSH1 0x6 SWAP1 DUP1 MLOAD SWAP1 PUSH1 0x20 ADD SWAP1 PUSH3 0x11F SWAP3 SWAP2 SWAP1 PUSH3 0x16F JUMP JUMPDEST POP CALLER PUSH1 0x3 PUSH1 0x0 ADD PUSH1 0x0 PUSH2 0x100 EXP DUP2 SLOAD DUP2 PUSH20 0xFFFFFFFFFFFFFFFFFFFFFFFFFFFFFFFFFFFFFFFF MUL NOT AND SWAP1 DUP4 PUSH20 0xFFFFFFFFFFFFFFFFFFFFFFFFFFFFFFFFFFFFFFFF AND MUL OR SWAP1 SSTORE POP POP POP POP POP POP PUSH3 0x629 JUMP JUMPDEST DUP3 DUP1 SLOAD PUSH3 0x17D SWAP1 PUSH3 0x4DD JUMP JUMPDEST SWAP1 PUSH1 0x0 MSTORE PUSH1 0x20 PUSH1 0x0 KECCAK256 SWAP1 PUSH1 0x1F ADD PUSH1 0x20 SWAP1 DIV DUP2 ADD SWAP3 DUP3 PUSH3 0x1A1 JUMPI PUSH1 0x0 DUP6 SSTORE PUSH3 0x1ED JUMP JUMPDEST DUP3 PUSH1 0x1F LT PUSH3 0x1BC JUMPI DUP1 MLOAD PUSH1 0xFF NOT AND DUP4 DUP1 ADD OR DUP6 SSTORE PUSH3 0x1ED JUMP JUMPDEST DUP3 DUP1 ADD PUSH1 0x1 ADD DUP6 SSTORE DUP3 ISZERO PUSH3 0x1ED JUMPI SWAP2 DUP3 ADD JUMPDEST DUP3 DUP2 GT ISZERO PUSH3 0x1EC JUMPI DUP3 MLOAD DUP3 SSTORE SWAP2 PUSH1 0x20 ADD SWAP2 SWAP1 PUSH1 0x1 ADD SWAP1 PUSH3 0x1CF JUMP JUMPDEST JUMPDEST POP SWAP1 POP PUSH3 0x1FC SWAP2 SWAP1 PUSH3 0x200 JUMP JUMPDEST POP SWAP1 JUMP JUMPDEST JUMPDEST DUP1 DUP3 GT ISZERO PUSH3 0x21B JUMPI PUSH1 0x0 DUP2 PUSH1 0x0 SWAP1 SSTORE POP PUSH1 0x1 ADD PUSH3 0x201 JUMP JUMPDEST POP SWAP1 JUMP JUMPDEST PUSH1 0x0 PUSH3 0x236 PUSH3 0x230 DUP5 PUSH3 0x422 JUMP JUMPDEST PUSH3 0x3F9 JUMP JUMPDEST SWAP1 POP DUP3 DUP2 MSTORE PUSH1 0x20 DUP2 ADD DUP5 DUP5 DUP5 ADD GT ISZERO PUSH3 0x255 JUMPI PUSH3 0x254 PUSH3 0x5AC JUMP JUMPDEST JUMPDEST PUSH3 0x262 DUP5 DUP3 DUP6 PUSH3 0x4A7 JUMP JUMPDEST POP SWAP4 SWAP3 POP POP POP JUMP JUMPDEST PUSH1 0x0 DUP2 MLOAD SWAP1 POP PUSH3 0x27B DUP2 PUSH3 0x5F5 JUMP JUMPDEST SWAP3 SWAP2 POP POP JUMP JUMPDEST PUSH1 0x0 DUP3 PUSH1 0x1F DUP4 ADD SLT PUSH3 0x299 JUMPI PUSH3 0x298 PUSH3 0x5A7 JUMP JUMPDEST JUMPDEST DUP2 MLOAD PUSH3 0x2AB DUP5 DUP3 PUSH1 0x20 DUP7 ADD PUSH3 0x21F JUMP JUMPDEST SWAP2 POP POP SWAP3 SWAP2 POP POP JUMP JUMPDEST PUSH1 0x0 DUP2 MLOAD SWAP1 POP PUSH3 0x2C5 DUP2 PUSH3 0x60F JUMP JUMPDEST SWAP3 SWAP2 POP POP JUMP JUMPDEST PUSH1 0x0 DUP1 PUSH1 0x0 DUP1 PUSH1 0x0 PUSH1 0xA0 DUP7 DUP9 SUB SLT ISZERO PUSH3 0x2EA JUMPI PUSH3 0x2E9 PUSH3 0x5B6 JUMP JUMPDEST JUMPDEST PUSH1 0x0 PUSH3 0x2FA DUP9 DUP3 DUP10 ADD PUSH3 0x26A JUMP JUMPDEST SWAP6 POP POP PUSH1 0x20 DUP7 ADD MLOAD PUSH8 0xFFFFFFFFFFFFFFFF DUP2 GT ISZERO PUSH3 0x31E JUMPI PUSH3 0x31D PUSH3 0x5B1 JUMP JUMPDEST JUMPDEST PUSH3 0x32C DUP9 DUP3 DUP10 ADD PUSH3 0x281 JUMP JUMPDEST SWAP5 POP POP PUSH1 0x40 DUP7 ADD MLOAD PUSH8 0xFFFFFFFFFFFFFFFF DUP2 GT ISZERO PUSH3 0x350 JUMPI PUSH3 0x34F PUSH3 0x5B1 JUMP JUMPDEST JUMPDEST PUSH3 0x35E DUP9 DUP3 DUP10 ADD PUSH3 0x281 JUMP JUMPDEST SWAP4 POP POP PUSH1 0x60 PUSH3 0x371 DUP9 DUP3 DUP10 ADD PUSH3 0x2B4 JUMP JUMPDEST SWAP3 POP POP PUSH1 0x80 DUP7 ADD MLOAD PUSH8 0xFFFFFFFFFFFFFFFF DUP2 GT ISZERO PUSH3 0x395 JUMPI PUSH3 0x394 PUSH3 0x5B1 JUMP JUMPDEST JUMPDEST PUSH3 0x3A3 DUP9 DUP3 DUP10 ADD PUSH3 0x281 JUMP JUMPDEST SWAP2 POP POP SWAP3 SWAP6 POP SWAP3 SWAP6 SWAP1 SWAP4 POP JUMP JUMPDEST PUSH1 0x0 PUSH3 0x3BF PUSH1 0x1C DUP4 PUSH3 0x458 JUMP JUMPDEST SWAP2 POP PUSH3 0x3CC DUP3 PUSH3 0x5CC JUMP JUMPDEST PUSH1 0x20 DUP3 ADD SWAP1 POP SWAP2 SWAP1 POP JUMP JUMPDEST PUSH1 0x0 PUSH1 0x20 DUP3 ADD SWAP1 POP DUP2 DUP2 SUB PUSH1 0x0 DUP4 ADD MSTORE PUSH3 0x3F2 DUP2 PUSH3 0x3B0 JUMP JUMPDEST SWAP1 POP SWAP2 SWAP1 POP JUMP JUMPDEST PUSH1 0x0 PUSH3 0x405 PUSH3 0x418 JUMP JUMPDEST SWAP1 POP PUSH3 0x413 DUP3 DUP3 PUSH3 0x513 JUMP JUMPDEST SWAP2 SWAP1 POP JUMP JUMPDEST PUSH1 0x0 PUSH1 0x40 MLOAD SWAP1 POP SWAP1 JUMP JUMPDEST PUSH1 0x0 PUSH8 0xFFFFFFFFFFFFFFFF DUP3 GT ISZERO PUSH3 0x440 JUMPI PUSH3 0x43F PUSH3 0x578 JUMP JUMPDEST JUMPDEST PUSH3 0x44B DUP3 PUSH3 0x5BB JUMP JUMPDEST SWAP1 POP PUSH1 0x20 DUP2 ADD SWAP1 POP SWAP2 SWAP1 POP JUMP JUMPDEST PUSH1 0x0 DUP3 DUP3 MSTORE PUSH1 0x20 DUP3 ADD SWAP1 POP SWAP3 SWAP2 POP POP JUMP JUMPDEST PUSH1 0x0 PUSH3 0x476 DUP3 PUSH3 0x47D JUMP JUMPDEST SWAP1 POP SWAP2 SWAP1 POP JUMP JUMPDEST PUSH1 0x0 PUSH20 0xFFFFFFFFFFFFFFFFFFFFFFFFFFFFFFFFFFFFFFFF DUP3 AND SWAP1 POP SWAP2 SWAP1 POP JUMP JUMPDEST PUSH1 0x0 DUP2 SWAP1 POP SWAP2 SWAP1 POP JUMP JUMPDEST PUSH1 0x0 JUMPDEST DUP4 DUP2 LT ISZERO PUSH3 0x4C7 JUMPI DUP1 DUP3 ADD MLOAD DUP2 DUP5 ADD MSTORE PUSH1 0x20 DUP2 ADD SWAP1 POP PUSH3 0x4AA JUMP JUMPDEST DUP4 DUP2 GT ISZERO PUSH3 0x4D7 JUMPI PUSH1 0x0 DUP5 DUP5 ADD MSTORE JUMPDEST POP POP POP POP JUMP JUMPDEST PUSH1 0x0 PUSH1 0x2 DUP3 DIV SWAP1 POP PUSH1 0x1 DUP3 AND DUP1 PUSH3 0x4F6 JUMPI PUSH1 0x7F DUP3 AND SWAP2 POP JUMPDEST PUSH1 0x20 DUP3 LT DUP2 EQ ISZERO PUSH3 0x50D JUMPI PUSH3 0x50C PUSH3 0x549 JUMP JUMPDEST JUMPDEST POP SWAP2 SWAP1 POP JUMP JUMPDEST PUSH3 0x51E DUP3 PUSH3 0x5BB JUMP JUMPDEST DUP2 ADD DUP2 DUP2 LT PUSH8 0xFFFFFFFFFFFFFFFF DUP3 GT OR ISZERO PUSH3 0x540 JUMPI PUSH3 0x53F PUSH3 0x578 JUMP JUMPDEST JUMPDEST DUP1 PUSH1 0x40 MSTORE POP POP POP JUMP JUMPDEST PUSH32 0x4E487B7100000000000000000000000000000000000000000000000000000000 PUSH1 0x0 MSTORE PUSH1 0x22 PUSH1 0x4 MSTORE PUSH1 0x24 PUSH1 0x0 REVERT JUMPDEST PUSH32 0x4E487B7100000000000000000000000000000000000000000000000000000000 PUSH1 0x0 MSTORE PUSH1 0x41 PUSH1 0x4 MSTORE PUSH1 0x24 PUSH1 0x0 REVERT JUMPDEST PUSH1 0x0 DUP1 REVERT JUMPDEST PUSH1 0x0 DUP1 REVERT JUMPDEST PUSH1 0x0 DUP1 REVERT JUMPDEST PUSH1 0x0 DUP1 REVERT JUMPDEST PUSH1 0x0 PUSH1 0x1F NOT PUSH1 0x1F DUP4 ADD AND SWAP1 POP SWAP2 SWAP1 POP JUMP JUMPDEST PUSH32 0x536F6D656E746520206E6F7461206D61696F7220717565207472657300000000 PUSH1 0x0 DUP3 ADD MSTORE POP JUMP JUMPDEST PUSH3 0x600 DUP2 PUSH3 0x469 JUMP JUMPDEST DUP2 EQ PUSH3 0x60C JUMPI PUSH1 0x0 DUP1 REVERT JUMPDEST POP JUMP JUMPDEST PUSH3 0x61A DUP2 PUSH3 0x49D JUMP JUMPDEST DUP2 EQ PUSH3 0x626 JUMPI PUSH1 0x0 DUP1 REVERT JUMPDEST POP JUMP JUMPDEST PUSH2 0x97B DUP1 PUSH3 0x639 PUSH1 0x0 CODECOPY PUSH1 0x0 RETURN INVALID PUSH1 0x80 PUSH1 0x40 MSTORE CALLVALUE DUP1 ISZERO PUSH2 0x10 JUMPI PUSH1 0x0 DUP1 REVERT JUMPDEST POP PUSH1 0x4 CALLDATASIZE LT PUSH2 0x88 JUMPI PUSH1 0x0 CALLDATALOAD PUSH1 0xE0 SHR DUP1 PUSH4 0xB55D6B47 GT PUSH2 0x5B JUMPI DUP1 PUSH4 0xB55D6B47 EQ PUSH2 0x108 JUMPI DUP1 PUSH4 0xFB0FC1C9 EQ PUSH2 0x112 JUMPI DUP1 PUSH4 0xFDF238F1 EQ PUSH2 0x11C JUMPI DUP1 PUSH4 0xFE9EF6F8 EQ PUSH2 0x13B JUMPI PUSH2 0x88 JUMP JUMPDEST DUP1 PUSH4 0x2D3E0C13 EQ PUSH2 0x8D JUMPI DUP1 PUSH4 0x354D4358 EQ PUSH2 0xAB JUMPI DUP1 PUSH4 0x39CF9AC9 EQ PUSH2 0xCA JUMPI DUP1 PUSH4 0x4BD17D79 EQ PUSH2 0xEA JUMPI JUMPDEST PUSH1 0x0 DUP1 REVERT JUMPDEST PUSH2 0x95 PUSH2 0x159 JUMP JUMPDEST PUSH1 0x40 MLOAD PUSH2 0xA2 SWAP2 SWAP1 PUSH2 0x717 JUMP JUMPDEST PUSH1 0x40 MLOAD DUP1 SWAP2 SUB SWAP1 RETURN JUMPDEST PUSH2 0xB3 PUSH2 0x1E7 JUMP JUMPDEST PUSH1 0x40 MLOAD PUSH2 0xC1 SWAP3 SWAP2 SWAP1 PUSH2 0x739 JUMP JUMPDEST PUSH1 0x40 MLOAD DUP1 SWAP2 SUB SWAP1 RETURN JUMPDEST PUSH2 0xD2 PUSH2 0x2AA JUMP JUMPDEST PUSH1 0x40 MLOAD PUSH2 0xE1 SWAP4 SWAP3 SWAP2 SWAP1 PUSH2 0x6D9 JUMP JUMPDEST PUSH1 0x40 MLOAD DUP1 SWAP2 SUB SWAP1 RETURN JUMPDEST PUSH2 0xF2 PUSH2 0x377 JUMP JUMPDEST PUSH1 0x40 MLOAD PUSH2 0xFF SWAP2 SWAP1 PUSH2 0x7A9 JUMP JUMPDEST PUSH1 0x40 MLOAD DUP1 SWAP2 SUB SWAP1 RETURN JUMPDEST PUSH2 0x110 PUSH2 0x37F JUMP JUMPDEST STOP JUMPDEST PUSH2 0x11A PUSH2 0x431 JUMP JUMPDEST STOP JUMPDEST PUSH2 0x124 PUSH2 0x53D JUMP JUMPDEST PUSH1 0x40 MLOAD PUSH2 0x132 SWAP3 SWAP2 SWAP1 PUSH2 0x6A9 JUMP JUMPDEST PUSH1 0x40 MLOAD DUP1 SWAP2 SUB SWAP1 RETURN JUMPDEST PUSH2 0x143 PUSH2 0x5F7 JUMP JUMPDEST PUSH1 0x40 MLOAD PUSH2 0x150 SWAP2 SWAP1 PUSH2 0x7A9 JUMP JUMPDEST PUSH1 0x40 MLOAD DUP1 SWAP2 SUB SWAP1 RETURN JUMPDEST PUSH1 0x6 DUP1 SLOAD PUSH2 0x166 SWAP1 PUSH2 0x85B JUMP JUMPDEST DUP1 PUSH1 0x1F ADD PUSH1 0x20 DUP1 SWAP2 DIV MUL PUSH1 0x20 ADD PUSH1 0x40 MLOAD SWAP1 DUP2 ADD PUSH1 0x40 MSTORE DUP1 SWAP3 SWAP2 SWAP1 DUP2 DUP2 MSTORE PUSH1 0x20 ADD DUP3 DUP1 SLOAD PUSH2 0x192 SWAP1 PUSH2 0x85B JUMP JUMPDEST DUP1 ISZERO PUSH2 0x1DF JUMPI DUP1 PUSH1 0x1F LT PUSH2 0x1B4 JUMPI PUSH2 0x100 DUP1 DUP4 SLOAD DIV MUL DUP4 MSTORE SWAP2 PUSH1 0x20 ADD SWAP2 PUSH2 0x1DF JUMP JUMPDEST DUP3 ADD SWAP2 SWAP1 PUSH1 0x0 MSTORE PUSH1 0x20 PUSH1 0x0 KECCAK256 SWAP1 JUMPDEST DUP2 SLOAD DUP2 MSTORE SWAP1 PUSH1 0x1 ADD SWAP1 PUSH1 0x20 ADD DUP1 DUP4 GT PUSH2 0x1C2 JUMPI DUP3 SWAP1 SUB PUSH1 0x1F AND DUP3 ADD SWAP2 JUMPDEST POP POP POP POP POP DUP2 JUMP JUMPDEST PUSH1 0x60 PUSH1 0x0 PUSH1 0x3 PUSH1 0x1 ADD PUSH1 0x3 PUSH1 0x0 ADD PUSH1 0x0 SWAP1 SLOAD SWAP1 PUSH2 0x100 EXP SWAP1 DIV PUSH20 0xFFFFFFFFFFFFFFFFFFFFFFFFFFFFFFFFFFFFFFFF AND DUP2 DUP1 SLOAD PUSH2 0x222 SWAP1 PUSH2 0x85B JUMP JUMPDEST DUP1 PUSH1 0x1F ADD PUSH1 0x20 DUP1 SWAP2 DIV MUL PUSH1 0x20 ADD PUSH1 0x40 MLOAD SWAP1 DUP2 ADD PUSH1 0x40 MSTORE DUP1 SWAP3 SWAP2 SWAP1 DUP2 DUP2 MSTORE PUSH1 0x20 ADD DUP3 DUP1 SLOAD PUSH2 0x24E SWAP1 PUSH2 0x85B JUMP JUMPDEST DUP1 ISZERO PUSH2 0x29B JUMPI DUP1 PUSH1 0x1F LT PUSH2 0x270 JUMPI PUSH2 0x100 DUP1 DUP4 SLOAD DIV MUL DUP4 MSTORE SWAP2 PUSH1 0x20 ADD SWAP2 PUSH2 0x29B JUMP JUMPDEST DUP3 ADD SWAP2 SWAP1 PUSH1 0x0 MSTORE PUSH1 0x20 PUSH1 0x0 KECCAK256 SWAP1 JUMPDEST DUP2 SLOAD DUP2 MSTORE SWAP1 PUSH1 0x1 ADD SWAP1 PUSH1 0x20 ADD DUP1 DUP4 GT PUSH2 0x27E JUMPI DUP3 SWAP1 SUB PUSH1 0x1F AND DUP3 ADD SWAP2 JUMPDEST POP POP POP POP POP SWAP2 POP SWAP2 POP SWAP2 POP SWAP1 SWAP2 JUMP JUMPDEST PUSH1 0x0 DUP1 PUSH1 0x0 ADD PUSH1 0x0 SWAP1 SLOAD SWAP1 PUSH2 0x100 EXP SWAP1 DIV PUSH20 0xFFFFFFFFFFFFFFFFFFFFFFFFFFFFFFFFFFFFFFFF AND SWAP1 DUP1 PUSH1 0x1 ADD DUP1 SLOAD PUSH2 0x2E1 SWAP1 PUSH2 0x85B JUMP JUMPDEST DUP1 PUSH1 0x1F ADD PUSH1 0x20 DUP1 SWAP2 DIV MUL PUSH1 0x20 ADD PUSH1 0x40 MLOAD SWAP1 DUP2 ADD PUSH1 0x40 MSTORE DUP1 SWAP3 SWAP2 SWAP1 DUP2 DUP2 MSTORE PUSH1 0x20 ADD DUP3 DUP1 SLOAD PUSH2 0x30D SWAP1 PUSH2 0x85B JUMP JUMPDEST DUP1 ISZERO PUSH2 0x35A JUMPI DUP1 PUSH1 0x1F LT PUSH2 0x32F JUMPI PUSH2 0x100 DUP1 DUP4 SLOAD DIV MUL DUP4 MSTORE SWAP2 PUSH1 0x20 ADD SWAP2 PUSH2 0x35A JUMP JUMPDEST DUP3 ADD SWAP2 SWAP1 PUSH1 0x0 MSTORE PUSH1 0x20 PUSH1 0x0 KECCAK256 SWAP1 JUMPDEST DUP2 SLOAD DUP2 MSTORE SWAP1 PUSH1 0x1 ADD SWAP1 PUSH1 0x20 ADD DUP1 DUP4 GT PUSH2 0x33D JUMPI DUP3 SWAP1 SUB PUSH1 0x1F AND DUP3 ADD SWAP2 JUMPDEST POP POP POP POP POP SWAP1 DUP1 PUSH1 0x2 ADD PUSH1 0x0 SWAP1 SLOAD SWAP1 PUSH2 0x100 EXP SWAP1 DIV PUSH1 0xFF AND SWAP1 POP DUP4 JUMP JUMPDEST PUSH1 0x0 TIMESTAMP SWAP1 POP SWAP1 JUMP JUMPDEST PUSH1 0x0 DUP1 ADD PUSH1 0x0 SWAP1 SLOAD SWAP1 PUSH2 0x100 EXP SWAP1 DIV PUSH20 0xFFFFFFFFFFFFFFFFFFFFFFFFFFFFFFFFFFFFFFFF AND PUSH20 0xFFFFFFFFFFFFFFFFFFFFFFFFFFFFFFFFFFFFFFFF AND CALLER PUSH20 0xFFFFFFFFFFFFFFFFFFFFFFFFFFFFFFFFFFFFFFFF AND EQ PUSH2 0x411 JUMPI PUSH1 0x40 MLOAD PUSH32 0x8C379A000000000000000000000000000000000000000000000000000000000 DUP2 MSTORE PUSH1 0x4 ADD PUSH2 0x408 SWAP1 PUSH2 0x769 JUMP JUMPDEST PUSH1 0x40 MLOAD DUP1 SWAP2 SUB SWAP1 REVERT JUMPDEST PUSH1 0x1 PUSH1 0x0 PUSH1 0x2 ADD PUSH1 0x0 PUSH2 0x100 EXP DUP2 SLOAD DUP2 PUSH1 0xFF MUL NOT AND SWAP1 DUP4 ISZERO ISZERO MUL OR SWAP1 SSTORE POP JUMP JUMPDEST PUSH1 0x0 DUP1 ADD PUSH1 0x0 SWAP1 SLOAD SWAP1 PUSH2 0x100 EXP SWAP1 DIV PUSH20 0xFFFFFFFFFFFFFFFFFFFFFFFFFFFFFFFFFFFFFFFF AND PUSH20 0xFFFFFFFFFFFFFFFFFFFFFFFFFFFFFFFFFFFFFFFF AND CALLER PUSH20 0xFFFFFFFFFFFFFFFFFFFFFFFFFFFFFFFFFFFFFFFF AND EQ DUP1 PUSH2 0x4DF JUMPI POP PUSH1 0x3 PUSH1 0x0 ADD PUSH1 0x0 SWAP1 SLOAD SWAP1 PUSH2 0x100 EXP SWAP1 DIV PUSH20 0xFFFFFFFFFFFFFFFFFFFFFFFFFFFFFFFFFFFFFFFF AND PUSH20 0xFFFFFFFFFFFFFFFFFFFFFFFFFFFFFFFFFFFFFFFF AND CALLER PUSH20 0xFFFFFFFFFFFFFFFFFFFFFFFFFFFFFFFFFFFFFFFF AND EQ JUMPDEST PUSH2 0x51E JUMPI PUSH1 0x40 MLOAD PUSH32 0x8C379A000000000000000000000000000000000000000000000000000000000 DUP2 MSTORE PUSH1 0x4 ADD PUSH2 0x515 SWAP1 PUSH2 0x789 JUMP JUMPDEST PUSH1 0x40 MLOAD DUP1 SWAP2 SUB SWAP1 REVERT JUMPDEST PUSH1 0x0 DUP1 PUSH1 0x2 ADD PUSH1 0x0 PUSH2 0x100 EXP DUP2 SLOAD DUP2 PUSH1 0xFF MUL NOT AND SWAP1 DUP4 ISZERO ISZERO MUL OR SWAP1 SSTORE POP JUMP JUMPDEST PUSH1 0x3 DUP1 PUSH1 0x0 ADD PUSH1 0x0 SWAP1 SLOAD SWAP1 PUSH2 0x100 EXP SWAP1 DIV PUSH20 0xFFFFFFFFFFFFFFFFFFFFFFFFFFFFFFFFFFFFFFFF AND SWAP1 DUP1 PUSH1 0x1 ADD DUP1 SLOAD PUSH2 0x574 SWAP1 PUSH2 0x85B JUMP JUMPDEST DUP1 PUSH1 0x1F ADD PUSH1 0x20 DUP1 SWAP2 DIV MUL PUSH1 0x20 ADD PUSH1 0x40 MLOAD SWAP1 DUP2 ADD PUSH1 0x40 MSTORE DUP1 SWAP3 SWAP2 SWAP1 DUP2 DUP2 MSTORE PUSH1 0x20 ADD DUP3 DUP1 SLOAD PUSH2 0x5A0 SWAP1 PUSH2 0x85B JUMP JUMPDEST DUP1 ISZERO PUSH2 0x5ED JUMPI DUP1 PUSH1 0x1F LT PUSH2 0x5C2 JUMPI PUSH2 0x100 DUP1 DUP4 SLOAD DIV MUL DUP4 MSTORE SWAP2 PUSH1 0x20 ADD SWAP2 PUSH2 0x5ED JUMP JUMPDEST DUP3 ADD SWAP2 SWAP1 PUSH1 0x0 MSTORE PUSH1 0x20 PUSH1 0x0 KECCAK256 SWAP1 JUMPDEST DUP2 SLOAD DUP2 MSTORE SWAP1 PUSH1 0x1 ADD SWAP1 PUSH1 0x20 ADD DUP1 DUP4 GT PUSH2 0x5D0 JUMPI DUP3 SWAP1 SUB PUSH1 0x1F AND DUP3 ADD SWAP2 JUMPDEST POP POP POP POP POP SWAP1 POP DUP3 JUMP JUMPDEST PUSH1 0x7 SLOAD DUP2 JUMP JUMPDEST PUSH2 0x606 DUP2 PUSH2 0x7E0 JUMP JUMPDEST DUP3 MSTORE POP POP JUMP JUMPDEST PUSH2 0x615 DUP2 PUSH2 0x7F2 JUMP JUMPDEST DUP3 MSTORE POP POP JUMP JUMPDEST PUSH1 0x0 PUSH2 0x626 DUP3 PUSH2 0x7C4 JUMP JUMPDEST PUSH2 0x630 DUP2 DUP6 PUSH2 0x7CF JUMP JUMPDEST SWAP4 POP PUSH2 0x640 DUP2 DUP6 PUSH1 0x20 DUP7 ADD PUSH2 0x828 JUMP JUMPDEST PUSH2 0x649 DUP2 PUSH2 0x8BC JUMP JUMPDEST DUP5 ADD SWAP2 POP POP SWAP3 SWAP2 POP POP JUMP JUMPDEST PUSH1 0x0 PUSH2 0x661 PUSH1 0x18 DUP4 PUSH2 0x7CF JUMP JUMPDEST SWAP2 POP PUSH2 0x66C DUP3 PUSH2 0x8CD JUMP JUMPDEST PUSH1 0x20 DUP3 ADD SWAP1 POP SWAP2 SWAP1 POP JUMP JUMPDEST PUSH1 0x0 PUSH2 0x684 PUSH1 0x2D DUP4 PUSH2 0x7CF JUMP JUMPDEST SWAP2 POP PUSH2 0x68F DUP3 PUSH2 0x8F6 JUMP JUMPDEST PUSH1 0x40 DUP3 ADD SWAP1 POP SWAP2 SWAP1 POP JUMP JUMPDEST PUSH2 0x6A3 DUP2 PUSH2 0x81E JUMP JUMPDEST DUP3 MSTORE POP POP JUMP JUMPDEST PUSH1 0x0 PUSH1 0x40 DUP3 ADD SWAP1 POP PUSH2 0x6BE PUSH1 0x0 DUP4 ADD DUP6 PUSH2 0x5FD JUMP JUMPDEST DUP2 DUP2 SUB PUSH1 0x20 DUP4 ADD MSTORE PUSH2 0x6D0 DUP2 DUP5 PUSH2 0x61B JUMP JUMPDEST SWAP1 POP SWAP4 SWAP3 POP POP POP JUMP JUMPDEST PUSH1 0x0 PUSH1 0x60 DUP3 ADD SWAP1 POP PUSH2 0x6EE PUSH1 0x0 DUP4 ADD DUP7 PUSH2 0x5FD JUMP JUMPDEST DUP2 DUP2 SUB PUSH1 0x20 DUP4 ADD MSTORE PUSH2 0x700 DUP2 DUP6 PUSH2 0x61B JUMP JUMPDEST SWAP1 POP PUSH2 0x70F PUSH1 0x40 DUP4 ADD DUP5 PUSH2 0x60C JUMP JUMPDEST SWAP5 SWAP4 POP POP POP POP JUMP JUMPDEST PUSH1 0x0 PUSH1 0x20 DUP3 ADD SWAP1 POP DUP2 DUP2 SUB PUSH1 0x0 DUP4 ADD MSTORE PUSH2 0x731 DUP2 DUP5 PUSH2 0x61B JUMP JUMPDEST SWAP1 POP SWAP3 SWAP2 POP POP JUMP JUMPDEST PUSH1 0x0 PUSH1 0x40 DUP3 ADD SWAP1 POP DUP2 DUP2 SUB PUSH1 0x0 DUP4 ADD MSTORE PUSH2 0x753 DUP2 DUP6 PUSH2 0x61B JUMP JUMPDEST SWAP1 POP PUSH2 0x762 PUSH1 0x20 DUP4 ADD DUP5 PUSH2 0x5FD JUMP JUMPDEST SWAP4 SWAP3 POP POP POP JUMP JUMPDEST PUSH1 0x0 PUSH1 0x20 DUP3 ADD SWAP1 POP DUP2 DUP2 SUB PUSH1 0x0 DUP4 ADD MSTORE PUSH2 0x782 DUP2 PUSH2 0x654 JUMP JUMPDEST SWAP1 POP SWAP2 SWAP1 POP JUMP JUMPDEST PUSH1 0x0 PUSH1 0x20 DUP3 ADD SWAP1 POP DUP2 DUP2 SUB PUSH1 0x0 DUP4 ADD MSTORE PUSH2 0x7A2 DUP2 PUSH2 0x677 JUMP JUMPDEST SWAP1 POP SWAP2 SWAP1 POP JUMP JUMPDEST PUSH1 0x0 PUSH1 0x20 DUP3 ADD SWAP1 POP PUSH2 0x7BE PUSH1 0x0 DUP4 ADD DUP5 PUSH2 0x69A JUMP JUMPDEST SWAP3 SWAP2 POP POP JUMP JUMPDEST PUSH1 0x0 DUP2 MLOAD SWAP1 POP SWAP2 SWAP1 POP JUMP JUMPDEST PUSH1 0x0 DUP3 DUP3 MSTORE PUSH1 0x20 DUP3 ADD SWAP1 POP SWAP3 SWAP2 POP POP JUMP JUMPDEST PUSH1 0x0 PUSH2 0x7EB DUP3 PUSH2 0x7FE JUMP JUMPDEST SWAP1 POP SWAP2 SWAP1 POP JUMP JUMPDEST PUSH1 0x0 DUP2 ISZERO ISZERO SWAP1 POP SWAP2 SWAP1 POP JUMP JUMPDEST PUSH1 0x0 PUSH20 0xFFFFFFFFFFFFFFFFFFFFFFFFFFFFFFFFFFFFFFFF DUP3 AND SWAP1 POP SWAP2 SWAP1 POP JUMP JUMPDEST PUSH1 0x0 DUP2 SWAP1 POP SWAP2 SWAP1 POP JUMP JUMPDEST PUSH1 0x0 JUMPDEST DUP4 DUP2 LT ISZERO PUSH2 0x846 JUMPI DUP1 DUP3 ADD MLOAD DUP2 DUP5 ADD MSTORE PUSH1 0x20 DUP2 ADD SWAP1 POP PUSH2 0x82B JUMP JUMPDEST DUP4 DUP2 GT ISZERO PUSH2 0x855 JUMPI PUSH1 0x0 DUP5 DUP5 ADD MSTORE JUMPDEST POP POP POP POP JUMP JUMPDEST PUSH1 0x0 PUSH1 0x2 DUP3 DIV SWAP1 POP PUSH1 0x1 DUP3 AND DUP1 PUSH2 0x873 JUMPI PUSH1 0x7F DUP3 AND SWAP2 POP JUMPDEST PUSH1 0x20 DUP3 LT DUP2 EQ ISZERO PUSH2 0x887 JUMPI PUSH2 0x886 PUSH2 0x88D JUMP JUMPDEST JUMPDEST POP SWAP2 SWAP1 POP JUMP JUMPDEST PUSH32 0x4E487B7100000000000000000000000000000000000000000000000000000000 PUSH1 0x0 MSTORE PUSH1 0x22 PUSH1 0x4 MSTORE PUSH1 0x24 PUSH1 0x0 REVERT JUMPDEST PUSH1 0x0 PUSH1 0x1F NOT PUSH1 0x1F DUP4 ADD AND SWAP1 POP SWAP2 SWAP1 POP JUMP JUMPDEST PUSH32 0x566F63652074656D20756D6120736F6C696369746163616F0000000000000000 PUSH1 0x0 DUP3 ADD MSTORE POP JUMP JUMPDEST PUSH32 0x566F6365206E616F20706F646520726574697261722061206E6F746120717565 PUSH1 0x0 DUP3 ADD MSTORE PUSH32 0x206E616F20646575206B6B6B6B00000000000000000000000000000000000000 PUSH1 0x20 DUP3 ADD MSTORE POP JUMP INVALID LOG2 PUSH5 0x6970667358 0x22 SLT KECCAK256 PUSH3 0xCEBB00 0x49 0xEB DUP2 SSTORE SWAP3 0xBF 0xC8 SWAP1 0xD0 0x4E 0xB6 PUSH14 0x5D7CB83B2A8CE50BCE6BEAEF1DAC 0xEC 0x4C PUSH5 0x736F6C6343 STOP ADDMOD SMOD STOP CALLER "
				},
				"gasEstimates": {
					"creation": {
						"codeDepositCost": "485400",
						"executionCost": "infinite",
						"totalCost": "infinite"
					},
					"external": {
						"Aceitar()": "26593",
						"Pessoa1()": "infinite",
						"Pessoa2()": "infinite",
						"Quemtapedindo()": "infinite",
						"notaMinima()": "2495",
						"objectContrato()": "infinite",
						"tempoContratoNota()": "403",
						"terminarContrato()": "28796"
					}
				},
				"methodIdentifiers": {
					"Aceitar()": "b55d6b47",
					"Pessoa1()": "fdf238f1",
					"Pessoa2()": "39cf9ac9",
					"Quemtapedindo()": "354d4358",
					"notaMinima()": "fe9ef6f8",
					"objectContrato()": "2d3e0c13",
					"tempoContratoNota()": "4bd17d79",
					"terminarContrato()": "fb0fc1c9"
				}
			},
			"storageLayout": {
				"storage": [
					{
						"astId": 16,
						"contract": "contracts/contratoNotaMinima.sol:ContratoNotaMinima",
						"label": "Pessoa2",
						"offset": 0,
						"slot": "0",
						"type": "t_struct(Solicitado)13_storage"
					},
					{
						"astId": 19,
						"contract": "contracts/contratoNotaMinima.sol:ContratoNotaMinima",
						"label": "Pessoa1",
						"offset": 0,
						"slot": "3",
						"type": "t_struct(Solicitante)6_storage"
					},
					{
						"astId": 21,
						"contract": "contracts/contratoNotaMinima.sol:ContratoNotaMinima",
						"label": "dataAssinatura",
						"offset": 0,
						"slot": "5",
						"type": "t_uint256"
					},
					{
						"astId": 23,
						"contract": "contracts/contratoNotaMinima.sol:ContratoNotaMinima",
						"label": "objectContrato",
						"offset": 0,
						"slot": "6",
						"type": "t_string_storage"
					},
					{
						"astId": 25,
						"contract": "contracts/contratoNotaMinima.sol:ContratoNotaMinima",
						"label": "notaMinima",
						"offset": 0,
						"slot": "7",
						"type": "t_uint256"
					}
				],
				"types": {
					"t_address": {
						"encoding": "inplace",
						"label": "address",
						"numberOfBytes": "20"
					},
					"t_bool": {
						"encoding": "inplace",
						"label": "bool",
						"numberOfBytes": "1"
					},
					"t_string_storage": {
						"encoding": "bytes",
						"label": "string",
						"numberOfBytes": "32"
					},
					"t_struct(Solicitado)13_storage": {
						"encoding": "inplace",
						"label": "struct Solicitado",
						"members": [
							{
								"astId": 8,
								"contract": "contracts/contratoNotaMinima.sol:ContratoNotaMinima",
								"label": "pessoa2",
								"offset": 0,
								"slot": "0",
								"type": "t_address"
							},
							{
								"astId": 10,
								"contract": "contracts/contratoNotaMinima.sol:ContratoNotaMinima",
								"label": "nome",
								"offset": 0,
								"slot": "1",
								"type": "t_string_storage"
							},
							{
								"astId": 12,
								"contract": "contracts/contratoNotaMinima.sol:ContratoNotaMinima",
								"label": "aceitar",
								"offset": 0,
								"slot": "2",
								"type": "t_bool"
							}
						],
						"numberOfBytes": "96"
					},
					"t_struct(Solicitante)6_storage": {
						"encoding": "inplace",
						"label": "struct Solicitante",
						"members": [
							{
								"astId": 3,
								"contract": "contracts/contratoNotaMinima.sol:ContratoNotaMinima",
								"label": "pessoa1",
								"offset": 0,
								"slot": "0",
								"type": "t_address"
							},
							{
								"astId": 5,
								"contract": "contracts/contratoNotaMinima.sol:ContratoNotaMinima",
								"label": "nome",
								"offset": 0,
								"slot": "1",
								"type": "t_string_storage"
							}
						],
						"numberOfBytes": "64"
					},
					"t_uint256": {
						"encoding": "inplace",
						"label": "uint256",
						"numberOfBytes": "32"
					}
				}
			},
			"userdoc": {
				"kind": "user",
				"methods": {},
				"version": 1
			}
		}
	}
}